:1001C5000D0ACAB9D3C3B1C8BDCFC6F7D7F64144E6
:1001D50043C0FDD7D30D0A00414443203D20000D07
:0201E5000A000E
:10000E005391EF43921043C93053CACFE4F5E675CE
:10001E00E71443E68043E60443E7405389F05389EF
:10002E00FC438E80D2A9D2B9758CFF758A23D28CEF
:10003E0053A23FE598543F4440F598439810539788
:10004E00EF438E01C2AC438E0475D7C075D6FD4307
:10005E008E10D2AF7BFF7A0179C51201E73000FD19
:10006E00C2007BFF7A0179DD1201E7AE0AAF0B7C8D
:10007E00277D10120139EF2430F50EAE0AAF0B7C3E
:10008E00277D101201397E037FE8CFCDCFCECCCEA7
:10009E00120139EF2430F50FAE0AAF0B7C037DE869
:1000AE001201397E007F64CFCDCFCECCCE12013976
:1000BE00EF2430F510AE0AAF0B7C007D64120139CF
:1000CE007E007F0ACFCDCFCECCCE120139EF2430B9
:1000DE00F511AE0AAF0B7C007D0A120139ED24300A
:1000EE00F512E4FF740E2FF8E6B4300676200FBF3B
:1000FE0004F2E4FFC299740E2FF8E6F5993099FDDB
:10010E00C2990FBF05EE7BFF7A0179E41201E70277
:02011E00006B74
:1001E7001201206012C299F5993099FDC2997401E4
:0801F70029F9E43AFA80E9223B
:03000B0002018E61
:10018E00C0E0E5E620E004C294800AD2940509E5B9
:10019E000970020508E50D150D7002150C14450CBD
:1001AE007012750CC3750D5085080A85090BF5087C
:0701BE00F509D200D0E03288
:030000000201FFFB
:0C01FF00787FE4F6D8FD75812002000E28
:10012000BB010689828A83E0225002E722BBFE02DD
:09013000E32289828A83E4932210
:10013900BC000BBE0029EF8DF084FFADF022E4CCAA
:10014900F875F008EF2FFFEE33FEEC33FCEE9DEC73
:10015900984005FCEE9DFE0FD5F0E9E4CEFD22EDB9
:10016900F8F5F0EE8420D21CFEADF075F008EF2F03
:10017900FFED33FD4007985006D5F0F222C398FDF4
:050189000FD5F0EA2291
:00000001FF
