:03000000020100FA
:03000B0002028A64
:10010000E4F593F594F591F592F595F596F5B1F53D
:10011000B2F5B3F5B4F5C9F5CAF5CBF5CCF5E1F513
:10012000E27581D075D00075380078307A08761085
:1001300008DAFBC28C438E805389FB5389FC758C93
:10014000A9758A9AD2A9D28CD2AF1201D33000FD00
:10015000C200053AE53A70020539C3E53A942CE548
:1001600039940140E8753A00753900759D007400B6
:100170001201E374001201E38E3B8F3C759D0874FD
:10018000031201E38E3D8F3EAC3DAD3E7F7B1202FC
:10019000F17C00AA3BAB3C1202981201B5753410F9
:1001A000EC540F2420F535EDC4540FF536ED540F03
:1001B000F53702014D7A107B007C007D00C3EF33E0
:1001C000FFEE33FEED3DD4FDEC3CD4FCEB3BD4FB29
:1001D000DAEB22759D0875BCE043972043910853E4
:1001E00092F722FF75BD0075BE00E5BC54E04408DF
:1001F0004FF5BC000000007B64E5BC30E40C53BC50
:10020000EFE5BD5403FEAFBE8006DBED7E047F004C
:10021000223F065B4F666D7D077F6F777C395E7985
:10022000710040761E7038375C733E783D675037FA
:100230006EBF86DBCFE6EDFD87FFEF4601020408C7
:1002400010204080C0027A083392C0D2C3C2C3DA01
:06025000F7D00222C0837A
:10025600C082C00090023CE5389364FF12024490CD
:100266000211E5382430F8E6936400120244D2CC39
:10027600C2CC0538E53854F86003753800D000D094
:1002860082D08322C0D0C0E0120254D200D0E0D087
:10029600D032BA002DEC8BF084CFCECDFCE5F0CB7E
:1002A600F97818EF2FFFEE33FEED33FDEC33FCEB60
:1002B60033FB10D703994004EB99FB0FD8E5E4F91B
:1002C600FA227818EF2FFFEE33FEED33FDEC33FC08
:1002D600C933C910D7059BE99A4007EC9BFCE99AFC
:1002E600F90FD8E0E4C9FAE4CCFB22EF8DF0A4AE16
:0C02F600F0CF8CF0A42EFEE435F0FD22C9
:00000001FF
