:1002D300EFD3940540037F012212052BFED3940331
:1002E30040037F0222EF7041EE700B900001120574
:1002F30044F45293529412052BB4010B9000011253
:1003030005444293F4529412052BFEB4020A900062
:100313000112054442934294EEB4030D900001127E
:100323000544FEF45293EE4294EF640170431205C8
:100333002BFE700B900001120544F452915292EE81
:10034300B4010B9000011205444291F4529212053C
:100353002BB4020A90000112054442914292120505
:100363002BB4030D900001120544FEF45291EE42AA
:1003730092EF6402704312052BFE700B9000011282
:100383000544F452955296EEB4010B900001120508
:10039300444295F4529612052BB4020A90000112BE
:1003A30005444295429612052BB4030D90000112A9
:1003B3000544FEF45295EE4296EF64037043120532
:1003C3002BFE700B900001120544F452B152B2EEB1
:1003D300B4010B90000112054442B1F452B212056C
:1003E3002BB4020A90000112054442B142B2120535
:1003F3002BB4030D900001120544FEF452B1EE42FA
:10040300B2EF6404704312052BFE700B90000112CF
:100413000544F452B352B4EEB4010B90000112053B
:100423004442B3F452B412052BB4020A90000112F1
:10043300054442B342B412052BB4030D90000112DC
:100443000544FEF452B3EE42B4EF64057043120563
:100453002BFF700B900001120544F452C952CAEFEE
:10046300B4010B90000112054442C9F452CA1205AB
:100473002BB4020A90000112054442C942CA120574
:100483002BB4030D900001120544FFF452C9EF424F
:04049300CA7F0022FA
:100066007509307508037B007A0079087F03020260
:01007600D3B6
:10049700E4F508F509750A01F50B750C01750DFBF7
:1004A700750E50750F01FB7A007908FF1200A6E45C
:1004B700F508F509750A01F50B750C01750DD17570
:1004C7000E20750F01FB7A0079087F011200A675CF
:1004D7000A01750B01E4F50C750DF8750E30750FF3
:1004E70001FB7A0079087F021200A6750A01750BD5
:1004F70001750C01750DD8750EF0750F017B007A2B
:100507000079087F031200A6E4F50A750B01750C44
:1005170001750DB1750EE0750F01FB7A0079087F43
:04052700040200A624
:10001E007593007594007591007592007595007535
:10002E00960075B10075B20075B30075B40075C950
:10003E000075CA0075CB0075CC0075E10075E20045
:0A004E00120066120497D2AF80FE84
:03000B00020003ED
:03000300B2903286
:03001B00020006DA
:03000600B2913282
:0300630002005840
:03005800B292322F
:03009B0002005B05
:03005B00B293322B
:0300A30002005EFA
:03005E00B2943227
:1000A600AD07EDD3940440037F0122ED7073120572
:1000B6002BFED3940340037F0222C28CC2A9C2B98D
:1000C6005389F0538E7F538FFE900002120544B47D
:1000D6000102D2A9900001120544B40102D2B9EE80
:1000E6004289900003120544FF7003438E80EFB4EB
:1000F6000203438904900004120544B40103438FAC
:1001060001900005120571E5F0F58C9000051205C9
:1001160071F58A900007120544B40102D28C7F0063
:1001260022ED6401707612052BFEC3940340037F13
:100136000222C28EC2ABC2BB53890F538EBF538FEE
:10014600FD900002120544B40102D2AB90000112E8
:100156000544B40102D2BBEEC454F04289900003B8
:10016600120544FF7003438E40EFB40203438940F7
:10017600900004120544B40103438F029000051257
:100186000571E5F0F58D900005120571F58B90006F
:1001960007120544B40102D28E7F0022ED6402707C
:1001A60063900003120544FED3940240037F0222AB
:1001B600538EE353AFFB538FFB900002120544B4FA
:1001C600010343AF04EE7003438E0490000312054F
:1001D60044B40203438E08900004120544B401039C
:1001E600438F04900005120571E5F0F5D6900005E1
:1001F600120571F5D7900007120544B40103438E2A
:10020600107F0022ED64037060900003120544FE27
:10021600D3940240037F022253D1F053AFDF900004
:1002260002120544B4010343AF20EE700343D1022A
:10023600900003120544B4020343D1069000041251
:100246000544B4010343D101900005120571E5F0A0
:10025600F5D4900005120571F5D5900007120544F6
:10026600B4010343D1087F0022ED6404705C900062
:1002760003120544FED3940240037F022253D10F9A
:1002860053AFBF900002120544B4010343AF40EEE2
:10029600700343D120900003120544B4020343D1F6
:1002A60060900004120544B4010343D11090000588
:1002B600120571FDACF0ECF5D28DD3900007120556
:0D02C60044B4010343D1807F00227F022257
:0300000002000EED
:0C000E00787FE4F6D8FD75810F02001E1B
:10052B00BB010689828A83E0225002E722BBFE02CE
:09053B00E32289828A83E4932201
:10054400BB010CE58229F582E5833AF583E022506C
:1005540006E92582F8E622BBFE06E92582F8E222B6
:0D056400E58229F582E5833AF583E49322D0
:10057100BB0110E58229F582E5833AF583E0F5F0C8
:10058100A3E0225009E92582F886F008E622BBFEA5
:100591000AE92582F8E2F5F008E222E5832AF583EB
:0805A100E993F5F0A3E99322B0
:00000001FF
