:03000000020100FA
:03001B0002020CD2
:10010000E4F593F594F591F592F595F596F5B1F53D
:10011000B2F5B3F5B4F5C9F5CAF5CBF5CCF5E1F513
:10012000E27581D075D000C2B453B1EF43B210C2B2
:100130008ED2ABD2BB5389CF438E405389BF438FFE
:1001400002758D00758B00D28ED2AF75300275317D
:1001500058AE30AF311201CB7F021201B3E531242A
:1001600001F531E5303400F530E531C39450E53028
:10017000941740087530177531508009AE30AF3193
:100180001201CB80D37F021201B3E531C39401F594
:1001900031E5309400F530E531C39420E53094002A
:1001A000500875300075312080AEAE30AF3112018D
:1001B000CB80D2C003C0047B077C36EC1C70011BD3
:1001C000144B70F7DFF1D004D00322C003C004C386
:1001D000EF9450EE941740047E177F50C3EF9420A5
:1001E000EE940050047E007F20C3EF9470FCEE94E8
:1001F00017FBC374009FFF74009EFEC2AF8E328F48
:10020000338B348C35D2AFD004D00322C0D0C0E0C1
:1002100030B40885348D85358B800685328D8533E5
:060220008BD0E0D0D032CB
:00000001FF
