:0300000002000EED
:10000B000200F97581D075D000C2B553B1DF43B290
:10001B0020C28CD2A9D2B95389FC438E805389FB61
:10002B00438F01758C00758A00D28CD2AF7530016D
:10003B007531F4AE30AF311200B87F021200A0E57B
:10004B00312401F531E5303400F530E531C39468E6
:10005B00E530941340087530137531688009AE3064
:10006B00AF311200B880D37F021200A0E531C394E8
:10007B0001F531E5309400F530E531C39420E530DE
:10008B009400500875300075312080AEAE30AF3122
:10009B001200B880D2C003C0047B077C83EC1C70B9
:1000AB00011B144B70F7DFF1D004D00322C003C047
:1000BB0004C3EF9468EE941340047E137F68C3EF80
:1000CB009420EE940050047E007F20C3EF9488FCB4
:1000DB00EE9413FBC374009FFF74009EFEC2AF8EA1
:1000EB00328F338B348C35D2AFD004D00322C0D0B7
:1000FB00C0E030B50885348C85358A800685328C16
:08010B0085338AD0E0D0D03228
:00000001FF
