:10001E00E4F593F594F591F592F595F596F5B1F520
:10002E00B2F5B3F5B4F5C9F5CAF5CBF5CCF5E1F5F6
:0E003E00E2D2AF12006612007F12009880FE20
:10006600C28CD2A95389FC5389FB538FFE438E80E1
:09007600758CA2758A40D28C221F
:10007F00C28ED2AB5389CF5389BF538FFD438E406E
:09008F00758DD1758B20D28E22F3
:10009800538EE343AF04538FFB538FFD438E047598
:0900A800D6E075D7C0438E10228A
:03000B00020003ED
:03000300B297327F
:03001B00020006DA
:03000600B296327D
:0300630002004C4C
:03004C00B2C73206
:0300000002000EED
:0C000E00787FE4F6D8FD75810702001E23
:00000001FF
