:100300003F065B4F666D7D077F6F777C395E797145
:100310000040761E7038375C733E783D6750376E0C
:10032000BF86DBCFE6EDFD87FFEF46010204081034
:03033000204080EA
:10003600E4F593F594F591F592F595F596F5B1F508
:10004600B2F5B3F5B4F5C9F5CAF5CBF5CCF5E1F5DE
:10005600E2F5167F0878087410F608DFFC438E80F8
:100066005389FB5389FC758CA9758A9AD2A9D28CBF
:10007600D2AFE4F514F515C3E51594C8E51494005C
:10008600500F3000F2C2000515E51570EA05148020
:10009600E67B007A007912752E00752F027F007EAE
:1000A60080120286E512FE7C00E42513F511EC3E73
:1000B600F510D3E5119410E51094274005E4F510EA
:1000C600F5117F007E8012035D12020B5387DFD28B
:1000D600AED2BE3000FDC2000515E515700205144E
:1000E600C394E8E514940340EAE4F514F515051104
:1000F600E51170020510D39410E51094274005E42D
:09010600F510F51112020B80CA7C
:0300330002018F38
:10018F00C0E0C0F0C083C082C0D075D000C000C036
:0D019F0001C002C003C004C005C006C007B7
:1001AC00C2C0752100D2C3C2C30521E521B410F52C
:1001BC00D2CCC2CCE510F5128511137B007A0079F4
:1001CC00127527007528027F007E801202C3E58716
:1001DC0030E5115387DF752100E521C3946450EE9F
:0401EC00052180F574
:1001F000D007D006D005D004D003D002D001D00063
:0B020000D0D0D082D083D0F0D0E0320C
:10020B00AE10AF117C277D1012013A8F0BAE10AFE1
:10021B00117C277D1012013A7E037FE8CFCDCFCE24
:10022B00CCCE12013A8F0CAE10AF117C037DE812CD
:10023B00013A7E007F64CFCDCFCECCCE12013A8F68
:10024B000DAE10AF117C007D6412013A7E007F0A67
:10025B00CFCDCFCECCCE12013A8F0EAE10AF117CDC
:10026B00007D0A12013A8D0F7F0374082FF8E6D335
:0A027B009400500676100FBF07F044
:010285002256
:0E038D00E4F5C7F5C5F5C675C3FF75C4FF22BC
:10028600AD07AC06C2AF75C78175C5018CC3AF0596
:100296008FC475C65A75C6A500E5C21201280DBDE4
:1002A60000010C740129F9E43AFAE52F152F7002C2
:0D02B600152E14452E70D512038DD2AF22E7
:10035D00AD07AC06C2AF8CC3AF058FC475C7817531
:0F036D00C50375C65A75C6A50012038DD2AF22FF
:1002C300AD07AC06C2AF75C78175C5028CC3AF0558
:1002D3008FC412010FF5C275C65A75C6A5000DBDB0
:1002E30000010C740129F9E43AFAE5281528700293
:0D02F300152714452770D512038DD2AF22B8
:10037C00E4FEEF25E0FF92C0D2C3C2C30EBE08F26A
:01038C00224E
:10033300E51690032B93F4FF12037C74082516F83B
:10034300E690030093FF12037CD2CCC2CC0516E5E2
:0A03530016C394084003E4F51622D7
:03000B0002000EE2
:10000E00C0E0C083C082C0D075D000C000C006C0A2
:10001E0007120333D200D007D006D000D0D0D08242
:05002E00D083D0E03298
:0300000002039B5D
:0C039B00787FE4F6D8FD75812F02003653
:10010F00BB010689828A83E0225002E722BBFE02EE
:09011F00E32289828A83E4932221
:10012800BB010689828A83F0225002F722BBFE01B6
:02013800F322B0
:10013A00BC000BBE0029EF8DF084FFADF022E4CCA9
:10014A00F875F008EF2FFFEE33FEEC33FCEE9DEC72
:10015A00984005FCEE9DFE0FD5F0E9E4CEFD22EDB8
:10016A00F8F5F0EE8420D21CFEADF075F008EF2F02
:10017A00FFED33FD4007985006D5F0F222C398FDF3
:05018A000FD5F0EA2290
:00000001FF
