:1000F700120003D2AFE4F508F509C202C201C2003B
:10010700F50B300015C20074212509F8A60E050964
:10011700E509C394104003E4F5092002E5E5086505
:100127000960DF74212508F8E6F50FD2020508E516
:0B01370008C3941040CCE4F50880C71A
:10000300C2DE75DA1175DB4975120175138085132C
:10001300EBE512F5FBE4F5F9F5E9E5A254CF44204D
:0F002300F5A2E5D954F14408F5D9D2BFD2DE22B7
:03003B0002003E82
:10003E00C0E0C0D075D000C004C005C006C00730F7
:10004E00D860C2D8300130D50A0CC201850C0ED250
:10005E000075DA11804CE50CC313F50C30A5034383
:10006E000C8074802511F51174013510F510851171
:10007E00EAE510F5FA802BAFFAEFFEADEA7C00E46C
:10008E002DF511EC3EF51074402511F51174023565
:10009E0010F5108511EAE510F5FA75DA49D20175F9
:1000AE000A0930D937C2D974802513F51374013576
:1000BE0012F5128513EBE512F5FB30021FE50B70FE
:1000CE000AC2A6850F0D750B098011D50B06D2A697
:1000DE00C2028008E50DC313F50D92A6D007D00617
:0900EE00D005D004D0D0D0E032DE
:03000000020142B8
:0C014200787FE4F6D8FD7581300200F7EC
:00000001FF
