:0F0015007DA57C06ED1D70011C144C70F7DFF10A
:0100240022B9
:10000300EF70038DFA22BF01038DFB22BF02028D25
:02001300FC22CD
:10003E008B298A2A892BAD07EDD394034003020145
:10004E009BED64037047C2DEF5F9F5E9AB29AA2AE8
:10005E00A92B120305FFE5A254CF4FF5A290000184
:10006E0012031EFFE5D954F14FF5D9900004120387
:10007E001E5401FFE5D954FE4FF5D9900005120329
:10008E001EB40104D2BF8002C2BFD2DE22AB29E56C
:10009E002B2404F9E4352AFA120305543112034BCA
:1000AE00AB29AA2AA92B90000212031EC394484022
:1000BE000FE92404F9E43AFA12030554CF12034B64
:1000CE00ED7040AB29AA2AA92B90000412031EFF43
:1000DE0090000212031EFE4FF5DA90000312031E6B
:1000EE00FFE5F2543F4FF5F290000612035DF50C5A
:1000FE0085F00BC2008E08850B11F5128512EAE50C
:10010E0011F5FAED64017040AB29AA2AA92B9000D3
:10011E000412031EFF90000212031EFE4FF5DB9029
:10012E00000312031EFFE5F3543F4FF5F390000654
:10013E0012035DF50E85F00DC2018E09850D13F5C6
:10014E00148514EBE513F5FBED64027040AB29AAA0
:10015E002AA92B90000412031EFF90000212031E08
:10016E00FE4FF5DC90000312031EFFE5F4543F4FE3
:10017E00F5F490000612035DF51085F00FC2028EA5
:0E018E000A850F15F5168516ECE515F5FC2211
:03003B0002019C23
:10019C00C0E0C0D075D000C004C005C006C0073098
:1001AC00D839C2D8E508C394484015E50C2512F59A
:1001BC0012E50B3511F5118512EAE511F5FA801BE4
:1001CC00E5087017AFFAF5118F12E512FEADEA7C57
:1001DC0000E42DF512EC3EF511D20030D939C2D91C
:1001EC00E509C394484015E50E2514F514E50D35C5
:1001FC0013F5138514EBE513F5FB801BE50970175C
:10020C00AFFBF5138F14E514FEADEB7C00E42DF57C
:10021C0014EC3EF513D20130DA39C2DAE50AC39494
:10022C00484015E5102516F516E50F3515F515851D
:10023C0016ECE515F5FC801BE50A7017AFFCF515FF
:10024C008F16E516FEADEC7C00E42DF516EC3EF5B4
:10025C0015D20230DF02C2DFD007D006D005D004A1
:05026C00D0D0D0E0320B
:10039500752342E4F524F525752780F528FB7A00B9
:1003A5007921FF12003E752342752440E4F5257539
:1003B5002740F528FB7A0079217F0112003E75233D
:1003C50042752480E4F525752720F528FB7A007908
:1003D500217F0212003E752208752120E4F525F5DE
:0B03E50026FB7A0079217F0302003E16
:10027100120395751780751840751920C203C204C1
:10028100C205AD17E4FF120003AD187F0112000390
:10029100AD197F021200037F1412001530030D15F2
:1002A10017E517D39410500FC203800B0517E517FC
:1002B100C394F04002D203AD17E4FF1200033004EF
:1002C1000D1518E518D39408500FC204800B0518BA
:1002D100E518C394784002D204AD187F01120003DF
:1002E10030050D1519E519D39404500FC205800B83
:1002F1000519E519C3943C4002D205AD197F0212DC
:0403010000038093E2
:03000000020025D6
:0C002500787FE4F6D8FD75812B02027193
:10030500BB010689828A83E0225002E722BBFE02F6
:09031500E32289828A83E4932229
:10031E00BB010CE58229F582E5833AF583E0225094
:10032E0006E92582F8E622BBFE06E92582F8E222DE
:0D033E00E58229F582E5833AF583E49322F8
:10034B00BB010689828A83F0225002F722BBFE0191
:02035B00F3228B
:10035D00BB0110E58229F582E5833AF583E0F5F0DE
:10036D00A3E0225009E92582F886F008E622BBFEBB
:10037D000AE92582F8E2F5F008E222E5832AF58301
:08038D00E993F5F0A3E99322C6
:00000001FF
