:0F057B007DA57C06ED1D70011C144C70F7DFF19F
:01058A00224E
:0601C4008B178A1889194F
:1001CA00EF6401600302035D751E01F51FF520F55A
:1001DA0021F522F523F5247F80900080E4F0A3DF47
:1001EA00FC7F80900000E4F0A3DFFCAB17AA18A9FB
:1001FA0019120026D394C040037F012290000A12EC
:10020A00003FB40104D2BC8002C2BC120026FFE542
:10021A0098543F4FF598EF64C06008EF644060035C
:10022A000202E190000212015E7F007E607D547C32
:10023A00001200A88F1D8E1C8D1B8C1AE4FFFE7DF8
:10024A0001FCAB1DAA1CA91BA81AC312013A400340
:10025A007F0222C3E4951DF51DE4951CF51C74016B
:10026A00951BF51BE4951AF51AAB17AA18A919904C
:10027A00000112003FFB6401702CC28E538EFE53A4
:10028A0089BF5389CF438E40AF1DAE1CAD1BAC1A3C
:10029A00780812014B8F8D851D8BC2AB5389BF53D2
:1002AA008FFDD28E8065EB64027029538EEF438EE8
:1002BA0001538EF7438E04AF1DAE1CAD1BAC1A78EA
:1002CA000812014B8FD6851DD753AFFB538EF743C8
:1002DA008E1080377F0222AB17AA18A9191200269E
:1002EA00FF701390000812003FB40105438E20806E
:1002FA001A538EDF8015EFB4801190000812003F68
:10030A00B40105438780800353877FAB17AA18A9D6
:10031A001990000912003FB40104D2AC8002C2ACA9
:10032A0090000712003FB40104D29C8002C29C9044
:10033A00000B12003F54C0FFE5A2543F4FF5A290B4
:10034A00000C12003FB4010543971080035397EF46
:05035A007F00227F037B
:01035F00227B
:1005580074802520F582E43400F583EFF00520E56A
:1005680020C394804003E4F520E52170057521013E
:03057800D29922F3
:10000300120026FF600C120558740129F9E43AFA2C
:0300130080EE225A
:030023000203DEF7
:1003DE00C0E0C083C082C0D075D000C00730982462
:1003EE00C298E524701EE522C39480400375220056
:1003FE00AF22052274002FF582E43400F583E599CF
:10040E00F0752305309927C299E51F6520601C748D
:10041E0080251FF582E43400F583E0F599051FE58C
:10042E001FC394804008751F008003752100D007FC
:09043E00D0D0D082D083D0E0328E
:1005310033CFDFB6D4B5C8CDA8D1B6B2E2CAD4B3F1
:10054100CCD0F2210D0A00B6D4B7BDC3BBD3D0BB0A
:07055100D8D3A6210D0A001A
:1004FD00750A40750B01750F00750EC2750D0175EE
:10050D000C00751101E4F512751301F514F515F5CF
:10051D0016FB7A00790A7F011201C47BFF7A0579F7
:04052D003102000394
:100360001204FDD2AFE523D3940040397F0112057A
:100370007B1523E523702EE522D394004024C2A1EF
:100380007B017A007900AD22120447EFD39400403C
:10039000097BFF7A057948120003D2A5D2A7D2A61D
:1003A000D2A1E4F52220A7BDC2A01204AE8F09E5B8
:1003B00009D39400401EE4F508E508C395095014DC
:1003C00074002508F582E43401F583E0FF12055836
:0E03D000050880E5D2A5D2A7D2A6D2A08087CC
:020447008D0A1C
:1004490020A7037F0122C2A77FE87E0330A60CEF15
:100459001F70011E144E70F47F0222120026F50C43
:10046900740129F9E43AFA750B08C2A7E50C25E0ED
:10047900F50C92A57E037FE830A60CEF1F70011ED4
:10048900144E70F47F0322D2A77E037FE820A60CC6
:10049900EF1F70011E144E70F47F0322D50BCBD5CC
:0404A9000AB97F000D
:0104AD00222C
:1004AE00E4FE79087D2C7C0130A70CED1D70011C3B
:1004BE00144C70F4AF0622C2A6EF25E0FF7C017D3E
:1004CE002C20A70CED1D70011C144C70F4AF0622ED
:1004DE0030A5010FD2A6D9CC74002EF582E43401DA
:0F04EE00F583EFF00EEEC3948040B7E4FE80B3C9
:03000000020016E5
:0C001600787FE4F6D8FD758124020360B9
:10002600BB010689828A83E0225002E722BBFE02D8
:09003600E32289828A83E493220B
:10003F00BB010CE58229F582E5833AF583E0225076
:10004F0006E92582F8E622BBFE06E92582F8E222C0
:0D005F00E58229F582E5833AF583E49322DA
:10006C0075F008758200EF2FFFEE33FECD33CDCC4B
:10007C0033CCC58233C5829BED9AEC99E5829840CE
:10008C000CF582EE9BFEED9AFDEC99FC0FD5F0D6AB
:10009C00E4CEFBE4CDFAE4CCF9A88222B800C1B9D5
:1000AC000059BA002DEC8BF084CFCECDFCE5F0CB13
:1000BC00F97818EF2FFFEE33FEED33FDEC33FCEB4C
:1000CC0033FB10D703994004EB99FB0FD8E5E4F907
:1000DC00FA227818EF2FFFEE33FEED33FDEC33FCF4
:1000EC00C933C910D7059BE99A4007EC9BFCE99AE8
:1000FC00F90FD8E0E4C9FAE4CCFB2275F010EF2F2D
:10010C00FFEE33FEED33FDCC33CCC833C810D7072C
:10011C009BEC9AE899400AED9BFDEC9AFCE899F867
:0E012C000FD5F0DAE4CDFBE4CCFAE4C8F922FA
:10013A00EB9FF5F0EA9E42F0E99D42F0E89C45F01B
:01014A002292
:10014B00E8600FECC313FCED13FDEE13FEEF13FF92
:03015B00D8F122B6
:10015E00BB010DE58229F582E5833AF58302019B09
:10016E005007E92582F802018EBBFE07E92582F8C9
:10017E000201A7E58229F582E5833AF5830201B4EF
:0D018E00E6FB08E6F908E6FA08E6CBF822E1
:0C019B00E0F8A3E0F9A3E0FAA3E0FB22E7
:0D01A700E2FB08E2F908E2FA08E2CBF822D8
:1001B400E493F8740193F9740293FA740393FB22A1
:00000001FF
