:03000000020100FA
:03003B000202F9C5
:10010000E4F593F594F591F592F595F596F5B1F53D
:10011000B2F5B3F5B4F5C9F5CAF5CBF5CCF5E1F513
:10012000E27581D075D0001202D0D2B7D2AF1201E1
:10013000BF753300741E1201DA120210E53360F449
:1001400075380075360175375612027E75360075A2
:1001500037AB12028B75360075371512027E7400AC
:1001600012029874FF120298E533120298E533F4F4
:10017000120298E538C394385011C374389538F595
:1001800038131313541F25381201DA741F1201DAC1
:10019000E530602575360175375612027E753600DA
:1001A00075375612028B75360075371512027E743C
:1001B000601201DA12021080D7753300020134C0D8
:1001C00007D2C07F14D2C300C2C300DFF8D2000040
:1001D000C200D20000C200D00722C002C003C00487
:1001E000FA7B067CA5EC1C70011B144B70F7DAF14E
:1001F000D004D003D002220001020003000000045A
:1002000000000000000000C0037B3CDBFED00322A6
:10021000C006C007AE317580F0120207E58054F0C9
:10022000F53175800F120207E580540F4531F53125
:100230006331FFEEB5313FAE30853130E5306033AC
:10024000EE600EEEB5302F0532E532B4142875326B
:01025000129B
:10025100E530C4540F9001F793FE6019E530540F57
:1002610093FF6011EE25E025E0FEEF2E240CF5331F
:1002710080037532007580FFD007D00622C2007559
:10028100DC4DD2DE20DEFDD2B722D20075DC49D2B0
:10029100DE20DEFDD2B722C004C0057C08FDED30B2
:1002A100E00F75360075373F12028B05380538802F
:1002B1000B75360075371512028B053875360075CA
:1002C100371512027EED03FDDCD4D005D00422C225
:1002D100DE75F90075E90075D800753600753702CD
:1002E10075DA497534007535648535EA8534FAD295
:1002F100BF53D91F43D90822C0D0C0E075D84020D0
:100301000030B2B730B71DE535247EF535E534341C
:1003110001F534E537153770021536144536702D61
:10032100C2DE8029E53524C7F535E5343400F534DE
:10033100801BE5352445F535E5343402F534E537E0
:100341001537700215361445367002C2DE8535EA5E
:080351008534FAD0E0D0D0326F
:00000001FF
