:100000000201002D2D2D436C6F636B2064656D6FB5
:040010002D2D2D0065
:10010000E4F593F594F591F592F595F596F5B1F53D
:10011000B2F5B3F5B4F5C9F5CAF5CBF5CCF5E1F513
:10012000E27581D075D0001202A674001202D57457
:10013000011202D55395EF439610D2A41201757A9D
:10014000007B0090000312030375300C75310075BD
:1001500032001201B012017574FA12019074FA1291
:10016000019074FA12019074FA1201901201FC12BB
:1001700001B0020158C007D2C07F14D2C300C2C36D
:1001800000DFF8D20000C200D20000C200D0072277
:10019000C002C003C004FA7B067C2BECC39401FCB4
:1001A000EB9400FB4C70F4DAEED004D003D00222C2
:1001B0007A017B04E53075F00A8424301202EE0BDC
:1001C000E5F024301202EE0B742D1202EE0BE53135
:1001D00075F00A8424301202EE0BE5F0243012028E
:1001E000EE0B742D1202EE0BE53275F00A8424300A
:1001F0001202EE0BE5F024301202EE220532E53257
:10020000C3943C5001227532000531E531C3943C62
:100210005001227531000530E530C3941850012299
:090220007530002200000000000E
:10022900000022C0E0C002C0037A277B1030870C8F
:10023900EBC39401FBEA9400FA4B70F1D003D002AE
:10024900D0E022C2A6F580120224D2A7120224C24B
:10025900A77580FF22C2A5D2A67580FF120224D2FB
:10026900A712022CC2A7C2A6F580120224D2A71295
:100279000224C2A77580FF22C2A5D2A67580FF12EB
:100289000224D2A712022CC2A7C2A6D2A5F58012B7
:100299000224D2A7120224C2A77580FF22D200D25B
:1002A90000D2007464120190743012024C740A1264
:1002B9000190743812025E740A12019074011202DC
:1002C9005E740612025E740C12025E22A2E092E6CD
:1002D9005440448012025EC0027A107420120281D6
:1002E900DAF9D00222C0E0EAA2E092E65440448062
:1002F9002B12025ED0E012028122EAA2E092E654B9
:100309004044802B12025EE4936009120281A30B20
:05031900EBB410F3221B
:00000001FF
