:100003002A2A2A20535443313546CFB5C1D0494E0D
:100013005432BBBDD0D1D4B4B2E2CAD4B3CCD0F243
:10002300202A2A2A0D0A00CDE2D6D0B6CF494E5453
:1000330032BBBDD0D1202000B4CEBBBDD0D10D0A80
:0100430000BC
:1000560075B0FF7F021200DB7E007F031200EB30DB
:10006600B6FD7F0A1200DB30B6FD7F0A1200DB43C5
:100076008F10D2AF4387020000007F011200DB7EA3
:10008600007F2A1200EB0508E50875F0641200BB34
:10009600E50875F06484E5F075F00A1200BBE50822
:1000A60075F00A84E5F02430FF1200BF7E007F3B26
:0500B6001200EB80AA1E
:03005300020107A0
:04010700538FEF32F1
:0F00DB007DA57C06ED1D70011C144C70F7DFF144
:0100EA0022F3
:0D0044007FAF7E00EF1F70011E144E70F79D
:01005100228C
:0400BB00842430FF6A
:0200BF00AD078B
:1000C100C2B11200447C08EDC313FD92B112004489
:0A00D100DCF5D2B112004402004435
:1000EB008F828E83E493FF60061200BFA380F522FC
:030000000200FB00
:0C00FB00787FE4F6D8FD758108020056FD
:00000001FF
