:10028B004572726F720054656D703A2020204300E6
:0C029B0048756D693A202020255248006B
:10000300E4F508F509F50A1202DD120308EF600EA4
:100013007BFF7A02798BE4FDFF1200A880EC7BFF63
:100023007A027991E4FDFF1200A87BFF7A02799BA3
:100033007D01E4FF1200A8050AE50A75F0C884E50E
:10004300F07059F514751500751609FB7A007908D7
:1000530012013BE50875F00A842430F50BE50875B9
:10006300F00A84E5F02430F50CE4F50DFB7A007911
:100073000BFD7F061200A8E50975F00A842430F50C
:100083000EE50975F00A84E5F02430F50FE4F51068
:10009300FB7A00790E7D017F061200A87F017E00A6
:0500A30012026D8092C5
:1002A700C2A6C2A5C2A78F807F017E0012026DD2AF
:0B02B700A77F017E0012026DC2A7228B
:0A024800AB12AA13A91412021DFF45
:10025200D2A6C2A5C2A78F807F017E0012026DD2F4
:0B026200A77F017E0012026DC2A722E0
:1002DD007F381202A77F0C1202A77F061202A77F9A
:0402ED00010202A761
:050311007F010202A7BC
:0800A8008F118B128A138914D9
:1000B000E4F515EDD39401400302013AE511940FE4
:1000C0005078EDC394015039AB12AA13A91412024F
:1000D0001D6067C374109511FFE515C39FE51550AA
:1000E00006248025118004251124B0FF1202A712D6
:1000F000024874012514F514E43513F51305158031
:10010000C7AB12AA13A91412021D602EC374109556
:1001100011FFE515C39FE515500624C02511800485
:1001200025112470FF1202A712024874012514F54C
:0A01300014E43513F513051580C71C
:01013A0022A2
:09030800D2A31202C21201EA2282
:1002C200D2A37F017E001202FDC2A37F197E00121B
:0B02D200026DD2A37F037E000202FD3C
:1001EA00E4FF20A30AEFC3946450040F0080F3EFE6
:1001FA00C3946440037F0122E4FF30A30AEFC3944F
:10020A006450040F0080F3EFC3946440037F01221B
:02021A007F0063
:01021C0022BF
:10019D00E4F51FF520F51D20A30CE520C394325086
:1001AD000505200080F1E4F5207F03FE1202FDE439
:1001BD00F51E30A303751E0130A30CE520C3946416
:1001CD00500505200080F1E51F25E0F51FE51E42D5
:0C01DD001F051DE51DC3940840BDAF1FA9
:0101E90022F3
:06013B008B118A128913EA
:100141001202C21201EAEF704DF51C12019D7417E3
:10015100251CF8A607051CE51CC3940540EDE51711
:100161002518FFE433FE7C00EF2519FFEC3EFEEF7E
:10017100251AFFEC3EFEEFB51B1FECB5061BAB14B9
:10018100AA15A916E517120236AB11AA12A913E591
:0B0191001912023680037F01227F005C
:01019C002240
:0B02FD00EF1FAC0670011E4C70F622D3
:10026D00D3EF9400EE940040147D6E7C00ED1D7074
:0D027D00011CED4C70F7EF1F70E61E80E3D2
:01028A002251
:030000000202F108
:0C02F100787FE4F6D8FD75812002000340
:10021D00BB010689828A83E0225002E722BBFE02DF
:09022D00E32289828A83E4932212
:10023600BB010689828A83F0225002F722BBFE01A7
:02024600F322A1
:00000001FF
