:1003C40012002EF59D900001120047FFE5BC549FDA
:1003D4004FF5BC900002120047B4010543BC808075
:1003E4000353BC7F900003120047B40105439720D8
:1003F40080035397DF900005120047B40104D2AD87
:100404008002C2AD900004120047B40103D2BD22A1
:03041400C2BD2244
:0B047B00BF010443BC802253BC7F2261
:10036700EFD3940740028050E4F5BDF5BEE5BC54D9
:10037700E044084FF5BC00000000E4FBE5BC30E4B6
:100387003353BCEFE59730E509E5BD5403ADBEFC3B
:10039700801DAFBD7C00AD07ED7E007802C333CE74
:1003A70033CED8F9FFE5BE5403FDEEFCEF4DFDAFAC
:0C03B70005AE04220BBBFAC47E047F00DC
:0103C3002217
:03002B00020027A9
:0400270053BCEF32A5
:0F0441007DA57C06ED1D70011C144C70F7DFF1DA
:010450002289
:030486000D0A005C
:10000300750B07750C20750D01E4F50EF50FF51052
:10001300FB7A00790B1203C47F0112047B4391071F
:030023005392F8FD
:0100260022B7
:1001E600120003E4F5087FFA120441E508C39403FC
:1001F600501AAF081203678E098F0A7F411204173F
:100206007F44120417E5082430FF802AE4F59DFF99
:100216001203678E098F0A759D07850911850A12D3
:100226007F411204177F441204177F721204177F4E
:10023600651204177F661204177F3D120417AE0974
:10024600AF0A7C037DE8120074EF2430FF12041716
:10025600AE09AF0A7C037DE81200747E007F64CF8E
:10026600CDCFCECCCE120074EF2430FF120417AEE1
:1002760009AF0A7C007D641200747E007F0ACFCD30
:10028600CFCECCCE120074EF2430FF120417AE0985
:10029600AF0A7C007D0A120074ED2430FF120417A9
:1002A6007F201204177F201204177F561204177F2F
:1002B6003D120417AE09AF0AE4FCFD7BE27A04F9AD
:1002C600F81200C9C006C007AE11AF12AB07AA06E6
:1002D600E4F9F8D007D0061201548E098F0A7C0380
:1002E6007DE8120074EF2430FF1204177F2E1204EB
:1002F60017AE09AF0A7C037DE81200747E007F64A6
:10030600CFCDCFCECCCE120074EF2430FF1204171F
:10031600AE09AF0A7C007D641200747E007F0ACFAE
:10032600CDCFCECCCE120074EF2430FF120417AE20
:1003360009AF0A7C007D0A120074ED2430FF120416
:10034600177F201204177F201204170508E508C33B
:10035600940450030201EC7E047F861204510201CC
:01036600E9AD
:0D0461007FAF7E00EF1F70011E144E70F77C
:01046E00226B
:02041700AD072F
:10041900C2AFC2B1120461E4FCED30E004D2B18094
:1004290002C2B1EDC313FD1204610CBC08EBD2B1D9
:08043900D2AF1204610204615C
:100451008F828E83E493FF6006120417A380F52236
:0300000002046F88
:0C046F00787FE4F6D8FD7581120201E6EA
:10002E00BB010689828A83E0225002E722BBFE02D0
:09003E00E32289828A83E4932203
:10004700BB010CE58229F582E5833AF583E022506E
:1000570006E92582F8E622BBFE06E92582F8E222B8
:0D006700E58229F582E5833AF583E49322D2
:10007400BC000BBE0029EF8DF084FFADF022E4CC70
:10008400F875F008EF2FFFEE33FEEC33FCEE9DEC39
:10009400984005FCEE9DFE0FD5F0E9E4CEFD22ED7F
:1000A400F8F5F0EE8420D21CFEADF075F008EF2FC9
:1000B400FFED33FD4007985006D5F0F222C398FDBA
:0500C4000FD5F0EA2257
:1000C900E88FF0A4CC8BF0A42CFCE98EF0A42CFCD6
:1000D9008AF0EDA42CFCEA8EF0A4CDA8F08BF0A454
:1000E9002DCC3825F0FDE98FF0A42CCD35F0FCEBB3
:1000F9008EF0A4FEA9F0EB8FF0A4CFC5F02ECD3978
:0F010900FEE43CFCEAA42DCE35F0FDE43CFC22E4
:1001180075F008758200EF2FFFEE33FECD33CDCC9E
:1001280033CCC58233C5829BED9AEC99E582984021
:100138000CF582EE9BFEED9AFDEC99FC0FD5F0D6FE
:10014800E4CEFBE4CDFAE4CCF9A88222B800C1B928
:100158000059BA002DEC8BF084CFCECDFCE5F0CB66
:10016800F97818EF2FFFEE33FEED33FDEC33FCEB9F
:1001780033FB10D703994004EB99FB0FD8E5E4F95A
:10018800FA227818EF2FFFEE33FEED33FDEC33FC47
:10019800C933C910D7059BE99A4007EC9BFCE99A3B
:1001A800F90FD8E0E4C9FAE4CCFB2275F010EF2F80
:1001B800FFEE33FEED33FDCC33CCC833C810D70780
:1001C8009BEC9AE899400AED9BFDEC9AFCE899F8BB
:0E01D8000FD5F0DAE4CDFBE4CCFAE4C8F9224E
:00000001FF
