:1074410048656C6C6F20576F726C64210031323368
:087451003435363738393000BC
:1059430090030B74F8F0A3E4F0900306E0FFA3E0E8
:1059530090003ACFF0A3EFF0A3740CF0A374FFF020
:10596300A37474F0A37441F0900304E0FAA3E0FB82
:105973007D0A7C007F0A7E001263F1900306E0FF3C
:10598300A3E090003ACFF0A3EFF0A37410F0A37458
:10599300FFF0A37474F0A37441F0900304E0FAA33E
:1059A300E0FB7D1E7C007F0A7E001263F1900306FC
:1059B300E0FFA3E090003ACFF0A3EFF0A37418F058
:1059C300A374FFF0A37474F0A37441F0900304E094
:1059D300FAA3E0FB7D327C007F0A7E001263F17440
:1059E300FF90030BF0A3F0900306E0FFA3E0900009
:1059F3003ACFF0A3EFF0A3740CF0A374FFF0A374F9
:105A030074F0A3744EF0900304E0FAA3E0FB7D501E
:105A13007C007F0A7E001263F1900306E0FFA3E09F
:105A230090003ACFF0A3EFF0A37410F0A374FFF04B
:105A3300A37474F0A3744EF0900304E0FAA3E0FBA4
:105A43007D647C007F0A7E001263F1900306E0FF11
:105A5300A3E090003ACFF0A3EFF0A37418F0A3747F
:105A6300FFF0A37474F0A3744EF0900304E0FAA360
:0D5A7300E0FB7D787C007F0A7E000263F17D
:0B74B6001274591242F312594380FE79
:0B74C100EF1FAC0670011E4C70F6229D
:1073CE00D3EF9400EE940040147D6E7C00ED1D70A2
:0D73DE00011CED4C70F7EF1F70E61E80E300
:0173EB00227F
:0574980042003200007B
:10745900759850758920758780758DFA858D8BD2C1
:06746900AFD28ED2992281
:0674D700EF24FF92AC223D
:0E74A800C2ACC2998F993099FDC299D2AC2224
:1073040090039DEBF0A3EAF0A3E9F090039DE0FB6A
:10731400A3E0FAA3E0F912319FFF60161274A87F6C
:10732400057E001274C190039EE475F00112325E72
:0373340080D922DB
:03002300026D501B
:106D5000C0E0C083C082C0D075D000C004C005C0F0
:016D6000072B
:106D6100309864C298AF99900032E0FCEC20E7576C
:106D710030E60FEF640A90003260028046E0448002
:106D8100800AEFB40D0C900032E04440F0A3E0F033
:106D91008035900032E0543FFCA3E02400F582747A
:106DA100003CF583EFF0900033E004F070069000B2
:106DB10032E004F0D3900033E09431900032E0945B
:076DC100004004E4F0A3F020
:0F6DC800D007D005D004D0D0D082D083D0E03215
:10002600204C43442049443A25780D0A000000003C
:10003600000000000000000000000000003F40003B
:1000460000000000000000300040003000400000CA
:100056000009000BC03D000BC03D00090018C0247C
:10006600407FE0224031800000180024C01B000DB4
:10007600803240018003801C4027401C80074000DE
:1000860040100060000000000000000000000000BA
:100096000000001F80204040200000402020401F1C
:1000A6008000000000090006001F8006000900000D
:1000B60000040004003F800400040000000010005B
:1000C60060000000000000000004000400040004BA
:1000D60000040000000000004000000000000000D6
:1000E60000002001C006003800400000001F8020EC
:1000F60040204020401F800000000010403FC0000C
:10010600400000000018C021402240244018400052
:100116000010802040244024401B80000002000D77
:100126000011003FC0014000003C802440244024D0
:1001360040238000001F8024402440344003800078
:10014600003000200027C03800200000001B80245B
:1001560040244024401B8000001C0022C022402274
:10016600401F800000000000000840000000000062
:100176000000000000046000000000000000000411
:10018600000A00110020804040090009000900090A
:10019600000900000000004040208011000A000411
:1001A600001800200023402400180000001F8020B3
:1001B60040274029401F400000004007C039000F7B
:1001C6000001C0004020403FC0244024401B800066
:1001D600001F802040204020403080000020403F0B
:1001E600C0204020401F80000020403FC024402EF9
:1001F6004030C0000020403FC024402E00300000A8
:10020600000F001080204022403380020020403F33
:10021600C0040004003FC02040204020403FC020D2
:1002260040204000000060202020203FC020002009
:100236000020403FC024400B0030C0204020403FFB
:10024600C020400040004000C03FC03C0003C03C0E
:10025600003FC0000020403FC00C4023003FC020AC
:10026600001F802040204020401F80000020403F8B
:10027600C024402400180000001F80214021402097
:10028600E01FA0000020403FC02440260019C00007
:100296004018C02440244022403180000030002015
:1002A600403FC020403000000020003F800040005A
:1002B600403F80200020003E0001C007003800209B
:1002C60000380007C03C0007C03800000020403955
:1002D600C0060039C0204000002000384007C03862
:1002E6004020000000304021C02640384020C00099
:1002F60000000000007FE040204020000000007069
:10030600000C000380004000000000402040207FD9
:10031600E000000000000020004000200000000077
:100326000000100010001000100010001000000067
:1003360000400000000000000000000280054005AB
:100346004003C0004020003FC0044004400380003A
:100356000000000380044004400640000000000343
:1003660080044024403FC000400000038005400553
:100376004003400000000004401FC02440244020E9
:1003860000000002E0055005500650042020403FC2
:10039600C00440040003C000400000044027C00021
:1003A600400000000000100010041027E0000000CC
:1003B6000020403FC00140070004C0044020402008
:1003C600403FC000400040000007C0040007C004D2
:1003D6000003C00000044007C00440040003C0003E
:1003E600400000038004400440038000000410071E
:1003F600F004500440038000000000038004400421
:100406005007F00010044007C0024004000400003A
:1004160000000006400540054004C000000000043E
:10042600001F8004400040000004000780004004D4
:100436004007C000400400070004C0018006000415
:1004460000060001C0070001C006000000044006C7
:10045600C0010006C0044000000410071004E001BB
:1004660080060004000000044005C0064004400069
:10047600000000000004007BE040200000000000B7
:10048600000000FFF000000000000040207BE004B8
:1004960000000000004000800040002000200040D6
:1004A6000000000000000000000000000000000046
:1004B600000000000000001FCC000C00000000003F
:1004C60000000008003000600008003000600000F6
:1004D60000022003FC1E20022003FC1E2002200036
:1004E6000000000E1811043FFF10840C7800000075
:1004F600000F0010840F3800C007781884007800B9
:100506000000780F8410C411240E9800E4008400C3
:1005160008080068007000000000000000000000ED
:100526000000000000000007E01818200440020048
:1005360000000040022004181807E0000000000038
:10054600000240024001800FF0018002400240009C
:10055600000080008000800FF8008000800080008E
:10056600000001000D000E00000000000000000069
:100576000000000080008000800080008000800075
:10058600800000000C000C000000000000000000CD
:100596000000000006001800600180060018002018
:1005A60000000007F0080810041004080807F0000F
:1005B600000000080408041FFC00040004000000FA
:1005C6000000000E0C10141024104411840E0C00B0
:1005D6000000000C1810041104110412880C70009D
:1005E60000000000E00320042408241FFC0024006F
:1005F6000000001F98108411041104108810700068
:1006060000000007F0088811041104188800700023
:100616000000001C00100010FC13001C001000005D
:100626000000000E3811441084108411440E380066
:100636000000000700088C10441044088807F000EA
:1006460000000000000000030C030C000000000086
:10065600000000000000010106000000000000008C
:100666000000000080014002200410080810040069
:100676000002200220022002200220022002200086
:100686000000001004080804100220014000800049
:100696000000000E001200100C106C10800F0000FD
:1006A6000003E00C1813E4142417C4082807D0002C
:1006B600000004003C03C41C40074000E4001C008A
:1006C6000410041FFC1104110411040E88007000AC
:1006D6000003E00C1810041004100410081C10008D
:1006E6000010041FFC100410041004080807F00092
:1006F6000010041FFC1104110417C410040818008C
:100706000010041FFC1104110017C010000800009F
:100716000003E00C181004100410441C780040007C
:100726000010041FFC10840080008010841FFC1041
:10073600040000100410041FFC1004100400000044
:100746000000030001100110011FFE100010000040
:100756000010041FFC110403801464181C1004000C
:100766000010041FFC1004000400040004000C0028
:100776000010041FFC1F0000FC1F001FFC100400DB
:100786000010041FFC0C04030000E010181FFC10EE
:100796000007F00808100410041004080807F00009
:1007A6000010041FFC10841080108010800F0000C1
:1007B6000007F0081810241024101C080A07F2007D
:1007C6000010041FFC1104110011C011300E0C00A2
:1007D6000400000E1C11041084108410441C380000
:1007E600001800100010041FFC1004100018000070
:1007F6000010001FF810040004000410041FF81075
:100806000010001E0011E0001C007013801C001078
:10081600001FC0103C00E01F0000E0103C1FC0009D
:10082600001004180C163401C001C01634180C1040
:100836000410001C00130400FC13041C001000002C
:10084600000804101C1064108413041C0410180003
:10085600000000000000007FFE400240024002004F
:1008660000000030000C0003800060001C00030044
:100876000000004002400240027FFE00000000002F
:100886000000000000200040004000400020000062
:10089600000001000100010001000100010001004B
:1008A60001000040004000200000000000000000A1
:1008B6000000000098012401440144014400FC00AA
:1008C6000410001FFC008801040104008800700069
:1008D6000000000070008801040104010400880083
:1008E600000000007000880104010411081FFC00CC
:1008F60004000000F8014401440144014400C8001A
:10090600000000010401040FFC1104110411001879
:1009160000000000D601290129012901C9010600AC
:100926000010041FFC008401000100010400FC000B
:100936000400000104190419FC000400040000006E
:10094600000000000300010101190119FE0000006A
:100956000010041FFC0024004001B4010C01040037
:10096600000000100410041FFC0004000400000036
:1009760000010401FC0104010001FC010401000066
:10098600FC010401FC008401000100010400FC00DC
:1009960004000000F8010401040104010400F80049
:1009A60000010101FF0085010401040088007000B8
:1009B6000000000070008801040104010501FF0029
:1009C600010104010401FC0084010401000180000E
:1009D60000000000CC012401240124012401980018
:1009E6000000000100010007F801040104000000F6
:1009F60000010001F8000400040004010801FC00E5
:100A060004010001800170000C00100160018001EA
:100A16000001F0010C003001C00030010C01F001B2
:100A26000000000104018C00740170018C010400B7
:100A360000010101810171000E00180160018001B1
:100A46000000000184010C013401440184010C0002
:100A560000000000000000000001003EFC400240D3
:100A6600020000000000000000FFFF000000000080
:100A7600000000400240023EFC01000000000000B1
:100A86000000006000800080004000400020002040
:100A96000000000000000000000000000000000050
:100AA6000000000000000000000000000000000040
:100AB6000000000000000000000000000000000030
:100AC600000000000F80380FFE380F80380000004D
:100AD600000000000000000000000000000000010F
:100AE60000000600000C000038000031000006007F
:100AF600000C00003800003000000000000000007C
:100B06000061800067F807F980006180006180005D
:100B160061800061800067F807F98000618000004D
:100B26000000000000000001C0E003E0F00630080D
:100B36000418081FFFFE040E080787F00381E00073
:100B4600000000000001F000060C00040408060C7A
:100B56007001F9C0000E00003BE000EC1807080821
:100B6600040C180003E00000000001E00007F00399
:100B7600F818041C0804170807E1D003C0E0002396
:100B8600B0003C0800200800001000000000000033
:100B96000100003100003200001C000000000000CF
:100BA600000000000000000000000000000000003F
:100BB600000000000000000000000000000000002F
:100BC600007F0001FFC00780F00C00181000042011
:100BD60000020000000000002000021000040C00CB
:100BE600180780F001FFC0007F0000000000000031
:100BF60000000000000000000000000000420000AD
:100C06006600006600003C0000180003FFC00018E4
:100C160000003C0000660000660000420000000084
:100C26000008000008000008000008000008000195
:100C3600FFC00008000008000008000008000008C7
:100C46000000000000000100003100003200001C1E
:100C5600000000000000000000000000000000008E
:100C66000000000000000000000800000800000866
:100C76000000080000080000080000080000080046
:100C8600000800000800000000000000000000004E
:100C960000380000380000380000000000000000A6
:100CA600000000000000000000000000000000003E
:100CB60000000600001C000070000180000E00000D
:100CC600380000C0000700001C00003000000000D3
:100CD60000000000007F8001FFE00380700600181E
:100CE60004000804000806001803807001FFE000F5
:100CF6007F800000000000000000000100080100E5
:100D06000801000803FFF807FFF8000008000008C4
:100D160000000800000000000000000001C03802CA
:100D2600C058040098040118040218040418061C8C
:100D36001803F81801E0F8000000000000000000A9
:100D460001C0E003C0F0040008040808040808060F
:100D5600180803F41801E7F00001E00000000000A5
:100D660000000000000300000D00001100006100FB
:100D760000810803010807FFF80FFFF800010800CB
:100D860001080000000000000000E007FCD0060893
:100D960008061008061008061008061838060FF090
:100DA6000607C0000000000000000000003F8001B0
:100DB600FFE0038430020818041008041008041029
:100DC60008071810030FF00007C00000000000001D
:100DD60000000003C0000700000600000600F80639
:100DE60007F806180006E0000700000600000000ED
:100DF6000000000001E1E003F7F0063410041808D3
:100E0600041808040C08040C0806161803F3F0016D
:100E1600C1E000000000000000F80003FC300306FB
:100E2600380402080402080402080404100308F047
:100E360001FFC0007F00000000000000000000006D
:100E460000000000000000000070380070380070DC
:100E56003800000000000000000000000000000054
:100E660000000000000000000000000000301A0032
:100E7600301C000000000000000000000000000020
:100E8600000000000000000008000014000022001E
:100E9600004100008080010040020020040010088C
:100EA60000080000000000000021000021000021D1
:100EB6000000210000210000210000210000210087
:100EC60000210000210000000000000000000008D2
:100ED600000804001002002001004000808000414C
:100EE60000002200001400000800000000000000BE
:100EF60003C00004C000040000080038080F3808CA
:100F060008380810000C300007E00003C00000009D
:100F160000000000003F8000FFE0038070020F1019
:100F260006708804C088048308047F8802C0900382
:100F3600012000FE400000080000180001F8003EF5
:100F46000801C20007020007E20000FE00001FC8F9
:100F56000001F800003800000804000807FFF80741
:100F6600FFF8040808040808040808040808061816
:100F76000803F41801E7F00001E00000000000009B
:100F8600003F8001FFE0038070020018040008049F
:100F960000080400080400100600200780C00000B6
:100FA6000004000807FFF807FFF80400080400081B
:100FB60004000804001802001003807001FFE0001E
:100FC6007F8000000004000807FFF807FFF8040808
:100FD60008040808040808040808043E0804000871
:100FE60006001801006000000004000807FFF8076B
:100FF600FFF8040808040800040800040800043E7A
:10100600000600000600000180000000000000004D
:10101600003F8001FFE0038070060018040008040A
:1010260002080402080203F00783F000020000022F
:101036000004000807FFF807FFF804080800080086
:1010460000080000080000080004080807FFF80769
:10105600FFF8040008000000000000040008040077
:101066000804000807FFF807FFF804000804000852
:101076000400080000000000000000000000060058
:10108600000700000104000104000104000307FF3B
:10109600FE07FFFC04000004000004000004000832
:1010A60007FFF807FFF8040C08001800003E0004CC
:1010B600C7800503C80600F80400380400180000BD
:1010C6000804000807FFF807FFF8040008000008F6
:1010D60000000800000800000800000800001800D2
:1010E600006000000004000807FFF807800807FCFE
:1010F60000007FC00003F80007C0007800078008E2
:1011060007FFF807FFF804000804000807FFF807C0
:10111600000803C00000E000003800001E000007C1
:10112600000001C00400F007FFF804000000000002
:10113600007F8001FFE003807006001804000804A9
:10114600000806001803003001FFE0007F80000061
:101156000004000807FFF807FFF804040804040069
:10116600040400040400040400060C0003F8000153
:10117600F000000000000000007F8001FFE0038017
:10118600700600880400880400C806003C03003E80
:1011960001FFE6007F8400000004000807FFF8074F
:1011A600FFF8040808040800040C00040F00040BF0
:1011B600C00610F003F03801E00800000800000047
:1011C60001E0F803F030063010041808041808048B
:1011D6000C08040C080206180207F00781E000005C
:1011E600000180000600000400000400000400085E
:1011F60007FFF807FFF804000804000004000006D3
:10120600000001800004000007FFE007FFF0040073
:101216001800000800000800000800000800000888
:1012260004001007FFE004000004000006000007A9
:10123600E00007FE00041FE00001F800003800018E
:10124600E0043E0007C000060000040000040000A1
:1012560007E00007FFC0041FF80007C007F80007F3
:10126600FF80043FF80007C004F8000700000400F0
:101276000000000004000806001807C07805F1C841
:10128600003E00001F800463E80780F8060018048B
:10129600000800000004000006000007800007E0C8
:1012A60008047C08001FF80007F800180804E00886
:1012B6000700000600000400000000000100080608
:1012C60000380400F80403E8040F08047C0805F05D
:1012D6000807C008070018040060000000000000AE
:1012E6000000000000000000000000003FFFFE209C
:1012F600000220000220000220000220000200005E
:101306000000000000000008000007000000C00008
:101316000038000006000001C000003000000E008A
:101326000001000000000000000000200002200074
:10133600022000022000022000023FFFFE00000003
:101346000000000000000000000000000000000097
:1013560000000800001000003000002000003000EF
:10136600001000000800000000000000000000015E
:101376000000010000010000010000010000010062
:101386000001000001000001000001000001000052
:101396000100000000000000000020000020000006
:1013A6001000001000000000000000000000000017
:1013B60000000000000000000000F00019F8001B0B
:1013C60018002208002608002408002410003FF810
:1013D600001FF800000800001800000004000007C5
:1013E600FFF80FFFF0001818001008002008002072
:1013F60008003018001FF0000FC0000000000000B9
:101406000007C0001FF00018300020080020080068
:101416002008003C08001C100000600000000000CE
:10142600000000000007C0001FF000381800200868
:1014360000200800200804101007FFF80FFFF00036
:1014460000100000000000000000000007C0001FA0
:10145600F00012300022180022080022080032088C
:10146600001E10000E2000000000000000200000FA
:10147600200800200801FFF803FFF80620080420D2
:1014860008042008072000030000000000000000F8
:1014960000000E000E6E001FF30031B10020B100F7
:1014A60020B1003191001F13002E1E00200E0030C7
:1014B6000000000004000807FFF80FFFF8001008FE
:1014C600002000002000002008003FF8001FF80060
:1014D60000080000000000000000000020080020B6
:1014E60008002008063FF8063FF80000080000083C
:1014F60000000800000000000000000000000000DE
:101506000003000003002001002001002003063F25
:10151600FE063FFC00000000000000000000000086
:1015260004000807FFF80FFFF80001880003000019
:101536002FC00038F80020380020080000080000FE
:101546000000000000000004000804000804000871
:1015560007FFF80FFFF80000080000080000080069
:101566000000000000002008003FF8003FF80010CF
:1015760008002000003FF8003FF800100800200097
:10158600003FF8003FF800000800000000200800B7
:101596003FF8003FF800100800100000200000206F
:1015A60008003FF8001FF8000008000000000000D7
:1015B6000007C0000FF000183000300800200800B7
:1015C6002008003008001830000FF00007C00000A7
:1015D60000000000002001003FFF003FFF00101147
:1015E600002009002008002008003038001FF00005
:1015F6000FC00000000000000007C0001FF0003808
:1016060018002008002008002009001011001FFF04
:10161600003FFF0000010000000020080020080035
:101626002008003FF8003FF80008080010080020D6
:10163600080020000030000030000000000000001C
:10164600000000000C78001E180033080023080074
:1016560021080021880021980030F0003860000041
:101666000000000000200000200000200000FFF025
:1016760003FFF800200800200800200800003000C2
:101686000000000000000000002000003FF0007F86
:10169600F8000018000008000008002010003FF8BD
:1016A600007FF00000100000000000000020000095
:1016B6003000003C00003F800023F000007800006E
:1016C60070002380003C0000300000200000200055
:1016D600003C00003FE00023F80000E00027000087
:1016E6003E00003FE00021F80001E0003E0000203F
:1016F60000000000002008002008003838003E687E
:101706000027800003C8002CF80038380020180095
:101716002008000000000000002000003003003C0C
:1017260001003F830023EC000070002380003C0092
:101736000020000020000000000000000000000063
:1017460038080020380020F80023E8002F88003EE3
:101756000800380800201800007000000000000093
:10176600000000000000000000000000000800006B
:1017760014001FF7FC3000062000020000000000E5
:101786000000000000000000000000000000000053
:10179600000000FFFFFF0000000000000000000046
:1017A60000000000000000000000002000023000E1
:1017B600061FF7FC001400000800000000000000EF
:1017C600000000000000000000000000180000609B
:1017D600000040000040000020000010000008004B
:1017E600000400000400000C0000100000C6D50034
:1017F60000000000E0380000783C00003C78000063
:101806003C70C0001CE1E01FFFFFF0001CE3000E6F
:101816001CE7C0079CE78003DCEF0003DCEE000159
:10182600DCFC60009CF9F07FFFFFF800000000017F
:10183600C00E0001FFFF0001C00E0001C00E000136
:10184600C00E0001FFFE0001C00E0001C00E000127
:10185600C00E0001FFFE0001C00E0001C00E000018
:10186600000000D6D000000000000700000007803E
:101876000000070000000700000007000000070145
:10188600801FFFFFE01FFFFFE01E0701C01E0701CC
:10189600C01E0701C01E0701C01E0701C01E0701AA
:1018A600C01FFFFFC01FFFFFC01E0701C01C0701AE
:1018B6008000070000000700000007000000070086
:1018C60000000700000007000000070000000700F6
:1018D600000007000000000000BFC6000000000076
:1018E600000780003C07C001FC07803FE007803905
:1018F600C1C78001C0E78001C0F78001C0778001C1
:10190600DE77807FFE078001C0078003C3C78003A0
:10191600E1E78003F8F78007FCE7F00FDE67F80FD2
:10192600DC07F81FC0FF801DDFE78039CC07807118
:10193600C0078061C0078001C0078001C007800121
:10194600E0078001E0078001C0070000000000BC3E
:10195600BC000000000380300003C03C0003C03C14
:101966000003C0380003C0380003C0386003F838ED
:10197600F07FFFFFF003C0380003C0380003C03813
:101986000003DC39C003FFFFE007E383C03FC183E8
:10199600C07FC1C3803BC1C78003C0EF0003C0EF57
:1019A6000003C07E0003C07C0003C07C0003C0FEB1
:1019B600003BC3EF803F8787F80FBF03F807780027
:1019C600E000000000C4EA0000000000C0000001C2
:1019D600F0000001E0000003C000C003C001E00702
:1019E600FFFFF00703C0000E03C0001E03C0003C4B
:1019F60003C3007303C78063FFFFC00383C00003F4
:101A060083C0000383C0000383C0000383C0600358
:101A160083C0F07FFFFFF80003C0000003C0000092
:101A260003C0000003C0000003C0000003C00000A4
:101A360003C0000003C00000000000D4C200000084
:101A4600000000000000E0070000FFFF8000F00734
:101A56008000F0070000F0070000F0070000F00724
:101A66000000FFFF0000FFFF0000F0070000F00786
:101A76000000F0070000F0070000E0070000FFFF8D
:101A86000000E0070000E0070000E0070001E007B3
:101A96000001C0070001C00700038007000780F7A8
:101AA600000F007F001E001F0038001C0000000011
:101AB60000C8D5000000000000000003000300037A
:101AC600FFFF8003FFFF80038007000380070003FA
:101AD60080070003800700038007000380070003D8
:101AE6008007000380070003FFFF00038007000351
:101AF60080070003800700038007000380070003B8
:101B060080070003800700038007000380070003A7
:101B1600FFFF000380070003800700038007000320
:101B260000000000000000D0C70000000000000018
:101B3600000380070003FFFF800380070003800780
:101B4600000380070003FFFF0003800700038007F0
:101B56000003FFFF0003FFFF00038707000387C0A2
:101B66000003C7810003C7838007FFFFC007078004
:101B7600000F0780001E0786001C078F003BFFFF33
:101B8600807007800000078000000780E000078162
:101B9600F07FFFFFF80000000000000000C6DA003A
:101BA60000000006000000079E0000079E7FF00769
:101BB6009E7FF0079FF8F03FFFF8F01F9E78F00732
:101BC6009E78F0079E78F007FE7FF0079E78F00774
:101BD6009E78F0079E70F007FE70F0079E70F00783
:101BE6009E7FF0079FFFF03FFFF0F0119070F0032B
:101BF600DCF0F003DEE0F0078FE0F00F0FE0F00E10
:101C060007C0F01C038FF0380F03E0201C01C00052
:031C1600000000CB
:0A749D0042030BFFFF42030D000045
:10000300E4FDFCC3ED9FEC9E5014E4FBFA0BBB0034
:0E001300010AEBF44A70F60DBD00010C80E509
:0100210022BC
:0473AD007F227E00BD
:1073B100AD07AC06D2A5C2A7D2B2C2A6ECF580C277
:0D73C100A5D2A5EDF580C2A5D2A5D2A722C8
:0D7337007E001273B1900053E0FEA3E0FF52
:10734400AD07AC06D2A5C2A7D2B2D2A6ECF580C2D4
:0D735400A5D2A5EDF580C2A5D2A5D2A72235
:08738800900386E0FEA3E0FF84
:10739000AD07AC06D2A5C2A7D2B2D2A6ECF580C288
:0D73A000A5D2A5EDF580C2A5D2A5D2A722E9
:067484007C107F037E0076
:0E748A00AB05AA041273B1AE02AF0302734445
:107427007590FF7580FFC2A7D2A6C2B200AF80EFEA
:09743700FEAD80EDFFD2B2D2A738
:017440002229
:1070F20090030AEFF07D1C70207C017F01FE127468
:107102008A7D30127484900306E4F0A374DCF0905C
:107112000304E4F0A374B0F0227C037F017E00122A
:10712200748A7D38127484900306E4F0A374B0F07C
:0A713200900304E4F0A374DCF022E3
:1042F300E4900034F0A3F0D2B37F64FE1273CEC215
:10430300B37F647E001273CED2B37F647E001273D8
:10431300CEE4FFFE1273B1127427900308EEF0A3EC
:10432300EFF07BFF7A007926900039EEF0A3EFF0EF
:10433300122EA57FD07E001273B17F031273447FC8
:10434300EB1273B17F007E0B1273447FEC7E00127D
:1043530073B17F0F1273447FC71273B17F0F7E0354
:104363001273447F017E001273B17F1C0E127344DB
:104373007F021E1273B17F000E1273447F031E125D
:1043830073B17F307E101273447F077E001273B1C6
:10439300E4FF1273447F081273B17408FE1273446E
:1043A3007F0F7E001273B17F017E061273447F106C
:1043B3007E001273B17F007E0A1273447F117E0068
:1043C3001273B17F417E1B1273447F327E00120051
:1043D300037F121273B17F0E7E201273447F137E0C
:1043E300001273B17F201273447F141273B17F5F85
:1043F3007E4A1273447F307E001273B1E4FF12735E
:10440300447F311273B17FDB1273447F321273B175
:10441300E4FF1273447F331273B1E4FF1273447FDA
:10442300341273B17FDB1273447F351273B1E4FF2F
:104433001273447F361273B17FAF1273447F371206
:1044430073B1E4FF1273447F381273B17FDB1273CD
:10445300447F391273B1E4FF1273447F501273B176
:10446300E4FF1273447F511273B17F037E0812730A
:10447300447F527E001273B17F077E0C1273447F18
:10448300537E001273B17F017E051273447F547E05
:10449300001273B17F0C7E071273447F557E0012A6
:1044A30073B17F087E031273447F567E001273B18B
:1044B300E4FF1273447F571273B17F050E127344E6
:1044C3007F581E1273B17F007E111273447F597E91
:1044D300001273B17F111273447F201273B1E4FF92
:1044E3001273447F211273B1E4FF1273447F0712E6
:1044F30073B17F177E101273441273ADE4FF127011
:0C450300F290030DE0FEA3E0FF026DD774
:056B0900E0FEA3E0FF27
:106B0E00900053EEF0A3EFF0A3ECF0A3EDF09003A2
:106B1E000AE07F367039FE1273B1AF03AE02127304
:106B2E00447F371273377F387E001273B19000594D
:106B3E0012733F7F397E001273B190005512733F6E
:106B4E007F201273377F217E001273B1A380407EA7
:106B5E00001273B190005912733F7F377E0012738B
:106B6E00B190005512733F7F387E001273B1AE02A2
:106B7E00AF031273447F391273377F207E00127376
:106B8E00B1A312733F7F217E001273B19000531296
:066B9E00733F1273AD22EB
:0E6FC60090030FEEF0A3EFF0A3ECF0A3EDF0BC
:106FD400E4A3F0A304F0A3E4F0A304F0900304E01A
:106FE400FCA3E0FDC3900310E09D90030FE09C50D0
:106FF40016900306E0FAA3E0FB900311E0FCA3E083
:10700400FDC39BEC9A4004E4FEFF2290030FE0FAD8
:10701400A3E0FBA3E0FFA3E0900059CFF0A3EFF0BF
:1070240090030F126B091273AD1274271274271296
:027034007427BF
:017036002237
:086DD700900036EEF0A3EFF08E
:106DDF00E4A3F0A3F0900305E024FFFB900304E08D
:106DEF0034FFFA900307E024FFFE900306E034FF20
:106DFF00900059F0A3CEF0E4FDFCFFFE126B0EE401
:106E0F00FAFBD3900305E09B900304E09A4039E42A
:106E1F00900038F0A3F0900306E0FEA3E0FFC390CC
:106E2F000039E09F900038E09E50169000361273A4
:106E3F008B900039E004F070DD900038E004F080B2
:086E4F00D50BBB00010A80BA5B
:016E57002218
:10675C009002EEECF0A3EDF09002ECEEF0A3EFF073
:08676C009002F0EAF0A3EBF04B
:10677400E49002F6F0A3F0D3EF9BEE9A4003026894
:106784002B9002F2E0FEA3E0FF9002EEE0FCA3E017
:10679400FD9FEC9E400302682B9002F0E0FAA3E018
:1067A400FBA3E0FFA3E0900059CFF0A3EFF0900229
:1067B400EC126B099002ECE0FEA3E0FFC39002F13F
:1067C400E09FFF9002F0E09ECF2401CF34009002BE
:1067D400ECF0A3EFF0A3E0FEA3E0FFC39002F3E02C
:1067E4009FFF9002F2E09ECF2401CF34009002EE8E
:1067F400F0A3EFF09002EC74FFF5F012327445F060
:1068040060259002EEE0FFA3E09002F6CFF0A3EF44
:10681400F09002F674FFF5F012327445F060D590F2
:0768240002F412738B80EAFD
:01682B00224A
:0E6021009001FEEEF0A3EFF0A3ECF0A3EDF083
:10602F009001FEE0FEA3E0FFC3EB9FFFEA9ECF24AB
:10603F0001CF340090020BF0A3EFF0900200E0FECE
:10604F00A3E0FFC3900205E09FFF900204E09ECF04
:10605F002401CF3400900209F0A3EFF0900200E08A
:10606F00FCA3E0FD900204E0FFA3E0900059CFF005
:10607F00A3EFF09001FE126B09E490020DF0A3F074
:10608F00900209E0FEA3E0FFC390020EE09F900292
:10609F000DE09E5074E490020FF0A3F090020BE01D
:1060AF00FEA3E0FF90020FE0FAA3E0FBC39FEA9E7E
:1060BF00504690020BE0FCA3E0FDA3E0FEA3E0FF3F
:1060CF001231F7EB2FFFEA3EFEEF25E0FFEE33FE36
:1060DF00900206E0FBA3E0FAA3E0F98F828E831211
:1060EF00328AFFAEF0127390900210E004F070ACA1
:1060FF0090020FE004F080A490020EE004F0708094
:09610F0090020DE004F002608F23
:016118002264
:1072110090031FFEE0FCA3E0FDC390031CE09DFD75
:0672210090031BE09CFC41
:10722700AB07AA068D828C83C006C007AE83AF82E8
:10723700900059EEF0A3EFF0D007D006126B0E9036
:0A724700030BE0FEA3E0FF027390CA
:06718500FDE0FAA3E0FBAF
:10718B0090004DEEF0A3EFF0900051EAF0A3EBF07E
:10719B0090004FECF0A3EDF090004DE0FAA3E0FB74
:1071AB00FFAE02C007A3E0FFA3E0900059CFF0A30E
:1071BB00EFF0D007126B0E900051E0FEA3E0FF0240
:0271CB007390BF
:106F530090037CEEF0A3EFF0A3ECF0A3EDF0A3EA33
:106F6300F0A3EBF012718B90037DE02401FF9003FB
:106F73007CE03400FE90037EE0FCA3E0A312718565
:106F830090037CE0FEA3E0FF90037FE02401FD90EB
:106F9300037EE03400FC90038012718690037DE051
:106FA3002401FF90037CE03400FE90037FE0240182
:106FB300FD90037EE03400FC900380E0FAA3E0FB45
:036FC30002718BCD
:0E47020090013CEEF0A3EFF0A3ECF0A3EDF07D
:10471000E4900144F0A3F0A3F0A3F0A3F0A3F09081
:10472000013CE0FEA3E0FFC3EB9FFFEA9E90014A3D
:10473000F0A3EFF090013EE0FAA3E0FBC390014349
:10474000E09BFE900142E09A90014CF0A3CEF090E5
:10475000013CE0FFA3E0900154CFF0A3EFF0A3EA07
:10476000F0A3EBF090014AE0FEA3E0FFD39400EE4B
:1047700064809480400A900150E4F0A304F080210A
:10478000EF4E7008900150F0A3F0801574FF900177
:1047900050F0A3F0C3E49FFFE49E90014AF0A3EF22
:1047A000F090014CE0FEA3E0FFD39400EE6480940F
:1047B00080400A900152E4F0A304F08021EF4E7093
:1047C00008900152F0A3F0801574FF900152F0A3FD
:1047D000F0C3E49FFFE49E90014CF0A3EFF0900142
:1047E0004CE0FEA3E0FF90014AE0FCA3E0FDD39F74
:1047F000EE6480F8EC64809890014E4007ECF0A3E2
:10480000EDF08005EEF0A3EFF0E4900144F0A3F0AA
:1048100090014FE02401FF90014EE03400FED39060
:104820000145E09F900144E09E40030248F0900162
:1048300054E0FEA3E0FFA3E0FCA3E0FD127227908A
:10484000014AE0FEA3E0FF900147E02FF09001460F
:10485000E03EF090014CE0FEA3E0FF900149E02F24
:10486000F0900148E03EF090014EE0FEA3E0FF90A2
:104870000146E0FCA3E0FDD39FEE6480F8EC648089
:10488000984020ED9FFFEC9E900146F0A3EFF09042
:104890000150E0FEA3E0FF900155E02FF09001549D
:1048A000E03EF090014EE0FEA3E0FF900148E0FC06
:1048B000A3E0FDD39FEE6480F8EC6480984020ED87
:1048C0009FFFEC9E900148F0A3EFF0900152E0FEB4
:1048D000A3E0FF900157E02FF0900156E03EF090EA
:1048E0000145E004F07006900144E004F002481035
:0148F00022A5
:0E48F1009000E2EEF0A3EFF0A3ECF0A3EDF0E8
:1048FF00E49000EEF0A3F0A3F0A3F09000E2E0FE4E
:10490F00A3E0FFC3EB9FFFEA9E9000F2F0A3EFF04E
:10491F009000E4E0FAA3E0FBC39000E9E09BFE9077
:10492F0000E8E09A9000F4F0A3CEF09000E2E0FFF0
:10493F00A3E09000FCCFF0A3EFF0A3EAF0A3EBF01D
:10494F009000F2E0FEA3E0FFD39400EE6480948029
:10495F00400A9000F8E4F0A304F08021EF4E7008B5
:10496F009000F8F0A3F0801574FF9000F8F0A3F01A
:10497F00C3E49FFFE49E9000F2F0A3EFF09000F4E9
:10498F00E0FEA3E0FFD39400EE64809480400A9091
:10499F0000FAE4F0A304F08021EF4E70089000FAC3
:1049AF00F0A3F0801574FF9000FAF0A3F0C3E49F1A
:1049BF00FFE49E9000F4F0A3EFF09000F4E0FEA36C
:1049CF00E0FF9000F2E0FCA3E0FDD39FEE6480F8DF
:1049DF00EC6480989000F64007ECF0A3EDF08005B2
:1049EF00EEF0A3EFF0E49000ECF0A3F09000F7E00E
:1049FF002401FF9000F6E03400FED39000EDE09F1D
:104A0F009000ECE09E4003024ADD9000FCE0FEA324
:104A1F00E0FFA3E0FCA3E09000EA1271859000F2A2
:104A2F00E0FEA3E0FF9000EFE02FF09000EEE03EFD
:104A3F00F09000F4E0FEA3E0FF9000F1E02FF09083
:104A4F0000F0E03EF09000F6E0FEA3E0FF9000EEF5
:104A5F00E0FCA3E0FDD39FEE6480F8EC6480984007
:104A6F0020ED9FFFEC9E9000EEF0A3EFF09000F88A
:104A7F00E0FEA3E0FF9000FDE02FF09000FCE03E91
:104A8F00F09000F6E0FEA3E0FF9000F0E0FCA3E062
:104A9F00FDD39FEE6480F8EC6480984020ED9FFF7B
:104AAF00EC9E9000F0F0A3EFF09000FAE0FEA3E090
:104ABF00FF9000FFE02FF09000FEE03EF09000ED41
:0E4ACF00E004F070069000ECE004F00249FBF9
:014ADD0022B6
:1065B200900382EEF0A3EFF0900386EAF0A3EBF0F3
:0865C200900384ECF0A3EDF05E
:1065CA00900382E0FAA3E0FB24FFFFEA34FFFEC057
:1065DA0006C007ED24FFFDEC34FFFCEB2401FBE4CD
:1065EA003AFAA3E0FEA3E02401FFE43E900059F04A
:1065FA00A3EFF0D007D006126B0EE4FB1273880BE0
:10660A00EBB409F8900383E024FCFF900382E034A2
:10661A00FFFEC007900384E0FCA3E0FD900383E043
:10662A002404FB900382E03400FA900384E0FFA381
:10663A00E0900059CFF0A3EFF0D007126B0EE4FB05
:10664A001273880BEBB409F8900385E024FCFD90E3
:10665A000384E034FFFC900382E0FAA3E0FBA3E0AA
:10666A00FEA3E02404FFE43E900059F0A3EFF0906B
:0F667A000382126B09E4FB1273880BEBB409F86F
:0166890022EE
:1069B500900358EAF0A3EBF0900354EEF0A3EFF048
:1069C500A3ECF0A3EDF0C007A3E0FAA3E0FB90036E
:1069D50056E0FFA3E0900142CFF0A3EFF0D00712FD
:1069E5004702900354E0FAA3E0FBFFAE02C007A301
:1069F500E0FCA3E0FD90035AE0FFA3E0900142CF45
:106A0500F0A3EFF0D00712470290035AE0FCA3E091
:106A1500FD900358E0FAA3E0FBA3E0FFA3E090019B
:106A250042CFF0A3EFF0900354E0FEA3E0FF12473E
:106A350002900358E0FAA3E0FBFFAE02C007900303
:106A450056E0FCA3E0FD90035AE0FFA3E09001426D
:0A6A5500CFF0A3EFF0D007024702D4
:0E4CC700900319EEF0A3EFF0A3ECF0A3EDF0D4
:104CD500E4A3F0A3F0EBFF7E00A3EEF0A3EFF02535
:104CE500E0FFEE33FEC374039F900322F0E49E9031
:104CF5000321F090031FE0FEA3E0FF90031DE0FCFD
:104D0500A3E0FDD39FEE6480F8EC64809840030235
:104D15004E9E90031AE02DFF900319E03C1272118C
:104D250090031FE0FEA3E0FF90031AE02FFF90031E
:104D350019E03E90031D12721490031FE0FEA3E0DC
:104D4500FF90031AE02FFF900319E03EFE90031D2C
:104D5500E0FCA3E0FD90031CE02DFD90031BE03C6F
:104D6500FC12722790031DE0FEA3E0FF90031AE0FA
:104D75002FFF900319E03EFE90031FE0FCA3E0FD2A
:104D850090031CE02DFD90031BE03CFC1272279064
:104D9500031DE0FEA3E0FFC390031AE09FFF90030D
:104DA50019E09EFE90031FE0FCA3E0FD90031CE0CC
:104DB5002DFD90031BE03CFC12722790031FE0FEC3
:104DC500A3E0FFC390031AE09FFF900319E09EFE46
:104DD50090031DE0FCA3E0FD90031CE02DFD900376
:104DE5001BE03CFC12722790031DE0FEA3E0FFC30D
:104DF50090031AE09FFF900319E09E127211900331
:104E05001FE0FEA3E0FFC390031AE09FFF90031984
:104E1500E09EFE90031D12721590031EE004F070D3
:104E25000690031DE004F0C3900321E064809480A4
:104E3500502590031DE0FEA3E07802C333CE33CEA8
:104E4500D8F92406FFE43EFE900322E02FF09003FC
:104E550021E03EF0024CF890031FE0FEA3E0FFC303
:104E650090031EE09FFF90031DE09EFEEF7802C3B6
:104E750033CE33CED8F9240AFFE43EFE900322E078
:104E85002FF0900321E03EF0900320E024FFF09006
:094E9500031FE034FFF0024CF8A9
:014E9E0022F1
:10553C00900041EEF0A3EFF0900045EBF0900043AB
:05554C00ECF0A3EDF0FE
:1055510090004AECF0A3EDF0900046E0FF13131326
:10556100541FFEEF540760047F0180027F00EE2F7D
:10557100FF900046E0C313FEEF8EF0A490004CF0C4
:10558100900045E024E0F0E4F990004CE0FFE9C32D
:105591009F40030256B3900046E0FFB40C12900006
:1055A10045E075F00CA42433F582E5F03400803138
:1055B100EFB41012900045E075F010A424A7F58215
:1055C100E5F03404801B900046E064186003025645
:1055D100B3900045E075F024A42497F582E5F034FA
:1055E1000AF583E58229F582E43583F583E4939016
:1055F1000048F0E4900049F0900048E030E7139053
:105601000041E0FEA3E0FFA3E0FCA3E0FD90030B5B
:105611008017900047E07014900041E0FEA3E0FF86
:10562100A3E0FCA3E0FD90030D127186900048E019
:1056310025E0F0900044E004F07006900043E0049F
:10564100F0900306E0FEA3E0FF900043E0FCA3E03E
:10565100FDC39FEC9E505B90004AE0FEA3E0FFC3B8
:10566100ED9FFDEC9EFC900046E07A00B50530EA26
:10567100B5042C900043EEF0A3EFF0900042E0045B
:10568100F07006900041E004F0900304E0FEA3E016
:10569100FFC3900042E09F900041E09E40102290A5
:1056A1000049E004F0E0C3940850030255F90902EF
:0256B100558A18
:0156B30022D4
:0770A200C3EF9E14FD7F0AFD
:0870A900900388EFF0A3EDF065
:1070B100A312345200000001900389E0FF14F0EFA5
:1070C1006020A3E0F8A3E0F9A3E0FAA3E0FB9003BA
:1070D10088E0FFE4FCFDFE1232EF90038A12344691
:1070E10080D690038AE0FCA3E0FDA3E0FEA3E0FFCD
:0170F100227C
:0E64D6009002C5EEF0A3EFF0A3ECF0A3EDF002
:1064E400E49002D1F09002CFF09002CDE0FF900250
:1064F400CFE0FEC39F40030265B11270A2A804A9B5
:1065040005AA06AB079002C9E0FCA3E0FDA3E0FEE8
:10651400A3E0FF12337AE47B0AFAF9F812337A9093
:1065240002D0EBF0A3E070459002CDE014FF90029E
:10653400CFE0FEC39F5036A3E0702C9002CEE0FB68
:10654400C3138EF0A4FF9002C6E02FFF9002C5E0B3
:1065540035F0FE9002C7E0FCA3E0FD900046EBF0AE
:10656400E4A3F07B20803A9002D17401F09002CE33
:10657400E0FAC313FFA3E0FEEF8EF0A4FF9002C67F
:10658400E02FFF9002C5E035F0FE9002C7E0FCA3C7
:10659400E0FD9002D0E02430FB900046EAF0E4A352
:0D65A400F012553C9002CFE004F00264EDCF
:0165B10022C7
:0E5CD80090029BEEF0A3EFF0A3ECF0A3EDF032
:105CE600E49002A8F09002A6F09002A3E0FF9002D2
:105CF600A6E0FEC39F4003025E001270A2A804A99C
:105D060005AA06AB0790029FE0FCA3E0FDA3E0FE18
:105D1600A3E0FF12337AE47B0AFAF9F812337A9099
:105D260002A7EBF0A3E06003025DB79002A3E014C4
:105D3600FF9002A6E0FEC39F5077A3E0706D90022D
:105D4600A5E0F99002A430E72BE0FBC3138EF0A484
:105D5600FF90029CE02FFF90029BE035F0FE900240
:105D66009DE0FCA3E0FD900046EBF0E95401A3F0B2
:105D76007B30807AE0FBC313FF9002A6E0FEEF8E35
:105D8600F0A4FF90029CE02FFF90029BE035F0FE0E
:105D960090029DE0FCA3E0FD900046EBF09002A58A
:105DA600E05401900047F07B2080439002A87401E4
:105DB600F09002A4E0FAC313FF9002A6E0FEEF8E75
:105DC600F0A4FF90029CE02FFF90029BE035F0FECE
:105DD60090029DE0FCA3E0FD9002A7E02430FB903A
:105DE6000046EAF09002A5E05401900047F01255F3
:0A5DF6003C9002A6E004F0025CEF0E
:015E0000227F
:1063F100900034EEF0A3EFF0A3ECF0A3EDF0A3EAEC
:04640100F0A3EBF029
:10640500900034E0FEA3E0FF900040F0900039E0FA
:106415002FF0900038E03EF0900036E0FEA3E0FF5C
:1064250090003BE02FF090003AE03EF090003DE018
:10643500FBA3E0FAA3E0F912319FFFD3947E40035A
:106445000264D5EFC3942050030264D5900038E070
:10645500FEA3E0FF900035E09F900034E09E401FD2
:10646500900040E0FF900034E4F0A3EFF090003C92
:10647500E0FF900037E02FF0900036E03400F09018
:10648500003AE0FEA3E0FF900036E0FCA3E0FDC388
:106495009FEC9E503B900034E0FEA3E0FF12319F3D
:1064A500FB90003CE0900046F0E4A3F012553C90D0
:1064B500003CE0C313FF900035E02FF0900034E07E
:1064C5003400F090003EE475F00112325E02643152
:0164D50022A4
:105BAD00900323EEF0A3EFF0A3ECF0A3EDF0A3EB45
:075BBD00F0A3EAF0A3E9F0F8
:105BC400900327E0FBA3E0FAA3E0F912319F7003EE
:105BD400025CD7900323E0FAA3E0FBFFAE02C00609
:105BE400C007A3E0FCA3E0FDEB241FFBE43AFA901A
:105BF4000325E0FEA3E0241CFFE43E900059F0A33B
:105C0400EFF0D007D006126B0EE490032AF0900355
:105C14002AE0FFC394144003025CBC900327E0FB1A
:105C2400A3E0FAA3E0F912319FFE75F076EFA42405
:105C3400F3F582E5F03417F583E4936E7071900008
:105C4400011231B8FF90032AE075F076A424F4F52C
:105C540082E5F03417F583E4936F7053FB90032AC5
:105C6400E075F076A424F5F582E5F03417F583E5C4
:105C7400822BF582E43583F583E493FF90032BE4D0
:105C8400F0A3EFF0E4FA90032CE030E70590030B67
:105C9400800390030D12738B90032CE025E0F090A9
:105CA400032BE033F00AEAB408DC0BEBB474AE90D7
:105CB400032AE004F0025C12900328E475F0021257
:105CC400325E900324E02420F0900323E03400F0BB
:035CD400025BC4AC
:015CD70022AA
:105A80009001E9EEF0A3EFF0A3ECF0A3EDF0A3EAB0
:045A9000F0A3EBF0A4
:105A9400E49001F4F0A3F0A312345200000000904B
:105AA40001FA123452000000009001EBE0FCA3E084
:105AB400FDA3E0FEA3E0FF9001E9E0FAA3E02FFFDD
:105AC400EA3ECF24FFFBEF34FFFA9001EFE0FEA3A0
:105AD400E0FF9001EBE0F8A3E02FFFE83ECF24FFC6
:105AE400CF34FF900059F0A3EFF09001E9126B0955
:105AF4009001EFE0FCA3E0FD9001EDE0FEA3E0FFE8
:105B04001231F7EF25E0FFEE33FEE4FCFD9001FADD
:105B14001234469001F6A3A3E0FEA3E0FDAC0624F4
:105B240001FFE43CFE9001F1E0FBA3E0FAA3E0F9FD
:105B34008F828E831231B8FF9001F4E4F0A3EFF06A
:105B4400E0F8E4F0E89001F4F08D828C831231B82F
:105B5400FF9001F4E0FEA3E04FFF9001F4EEF0FEAD
:105B6400A3EFF0127390A3E0FCA3E0FDA3E0FEA377
:105B7400E02402FFE43EFEE43DFDE43CFC9001F63B
:105B84001234469001FAE0FCA3E0FDA3E0FEA3E09A
:105B9400FF9001F6E0F8A3E0F9A3E0FAA3E0FBC369
:085BA40012340C5003025B17E0
:015BAC0022D6
:0B74CC00C2A1D2A3D2A2D2A1C2A3226F
:10740A00C2A1E4FEEFC4131313540124FF92A2EFA6
:0C741A0025E0FFC2A1D2A10EEEB408E8EC
:017426002243
:1072C900E49003A0F0A3F0C2A1FDFC9003A1E02586
:1072D900E0F09003A0E033F0D2A1C2A1A2A0E43370
:1072E900FFE0F0A3E04FF00DBD00010CED640C4C84
:0A72F90070D99003A0E0FEA3E0FFAF
:017303002267
:07523900EEF0A3EFF07F90FF
:02524000AB07BA
:10524200C2A1C2A3E4900158F0AF0312740A900104
:10525200597406F0900159E014F0E070F7D2A10001
:1052620000C2A100001272C9900158E025E0245A40
:10527200F582E43401F583EEF0A3EFF0900158E0FB
:1052820004F0E0C3940A40C1D2A3E4900158F09024
:105292000158E0FFC394094003025347EF04A3F00F
:1052A200900159E0FFC3940A400302533EEF25E008
:1052B200245AF582E43401F583E0FEA3E0FF900175
:1052C20058E0FB25E0245AF582E43401F583E0FC42
:1052D200A3E0C39FEC9E505BEB25E0245AF582E4E9
:1052E2003401F583E0FEA3E0FFE4FCFD90016E12C1
:1052F2003446900159E0FA25E0245AF582E434015B
:10530200F583E0FEA3E0FFEB25E0245AF582E434C6
:1053120001F583EEF0A3EFF090016EA3A3E0FEA3EC
:10532200E0FFEA25E0245AF582E43401F583EEF049
:10533200A3EFF0900159E004F00252A2900158E06C
:1053420004F002529190016E12345200000000905B
:1053520001587402F090016EE0F8A3E0F9A3E0FABC
:10536200A3E0FB900158E025E0245AF582E43401E1
:10537200F583E0FEA3E0FFE4FCFDEB2FFFEA3EFE37
:10538200ED39FDEC38FC90016E123446900158E084
:1053920004F0E0B408BF90016EE0FCA3E0FDA3E0DE
:1053A200FEA3E0FFE47B06FAF9F81271CD90016EDC
:0D53B20012344690016EA3A3E0FEA3E0FFBD
:0153BF0022CB
:105E01001274CC7FD012524090032D12523990035C
:105E110033EEF0A3EFF07FD012524090032F1252D5
:105E210039AD07AC0690032FE0FEA3E0FF90032DF0
:105E3100E0FAA3E0FBD39FEA9E400AA3A3EB9FFFF6
:105E4100EA9EA3801790032DE0FEA3E0FFC3900319
:105E510030E09FFF90032FE09E900331F0A3EFF01D
:105E6100900333E0FEA3E0FFD39DEE9C4007EF9D3E
:105E7100FFEE9C800E900333E0FEA3E0FFC3ED9F95
:105E8100FFEC9EA3F0A3EFF0D3900332E0943290A5
:105E91000331E09400500E900336E09432900335C4
:105EA100E0940040037F002290032FE0FEA3E0FF77
:105EB10090032EE02FFF90032DE03EC313FEEF135E
:105EC100FF9002D2EEF0A3EFF0900334E02DFF90AB
:105ED1000333E03CC313FEEF13FF9002D4EEF0A3B3
:105EE100EFF09002D3E054F0F09002D5E054F0F0DE
:105EF100C39002D3E094649002D2E09400400FD3A7
:105F01009002D5E094D89002D4E0940E40037F0033
:035F1100227F01EB
:015F1400226A
:1073EC00E4900394F0125E01EF6008900394740132
:0D73FC00F08001E49002DEF0900394E0FFC9
:017409002260
:066E580090035C123446B9
:106E5E0090035CE0FCA3E0FDA3E0FEA3E0FF78134B
:106E6E00123433A3EEF0A3EFF090035CE0FCA3E04A
:106E7E00FDA3E0FEA3E0FF780A123433EF543FFE89
:106E8E00E4900362F0A3CEF090035CE0FCA3E0FD7F
:106E9E00A3E0FEA3E0FF7803123433EF541FFFE4A8
:106EAE00AD07FC900362E0FEA3E07805C333CE335A
:106EBE00CED8F9FBAA06900361E033333354F84A77
:096ECE00FEEBFFEE4CFEEF4DFF60
:016ED7002298
:04725100AD07AC06D3
:107255007BE77A187E00ED54037803C333CE33CE33
:10726500D8F9FFEA4EFAEB4FFB7E00ED541C780689
:10727500C333CE33CED8F9FFEA4EFAEB4FFBED54CC
:07728500E04AFAEBAE02FF44
:01728C0022DF
:08713C0090038EEFF0A3EDF0CB
:10714400A31234520000000190038FE0FF14F0EF0B
:107154006020A3E0F8A3E0F9A3E0FAA3E0FB900326
:107164008EE0FFE4FCFDFE1232EF900390123446F1
:1071740080D6900390E0FCA3E0FDA3E0FEA3E0FF33
:0171840022E8
:10703700900364123446900368E0FCA3E0FDA3E0EC
:10704700FEA3E0FF900364E0F8A3E0F9A3E0FAA34E
:10705700E0FBD3123422401D900368E0F8A3E0F967
:10706700A3E0FAA3E0FB900364E0FCA3E0FDA3E048
:10707700FEA3E0801A900364E0F8A3E0F9A3E0FA26
:10708700A3E0FBA3E0FCA3E0FDA3E0FEA3E0C39B1A
:0B709700FFEE9AFEED99FDEC98FC2244
:08728D00900399EEF0A3EFF06D
:1072950090030BE0FFA3E090039BCFF0A3EFF0AFCB
:1072A5000390030BEAF0A3EFF0900399E0FEA3E04F
:1072B500FF12722790039BE0FFA3E090030BCFF032
:0372C500A3EFF044
:0172C80022A3
:1061190090025AEEF0A3EFF0A3ECF0A3EDF0A3EA9E
:04612900F0A3EBF004
:10612D00E4900265F0A3F090025EE0FEA3E0FFC3F1
:10613D00900266E09F900265E09E400302620FE4CC
:10614D00900267F0A3F0900260E0FEA3E0FFC39021
:10615D000268E09F900267E09E40030261FB90029F
:10616D0065E0FEA3E0FF90025BE02FFF90025AE096
:10617D003EFE900267E0FCA3E0FD90025DE02DFD88
:10618D0090025CE03CFC126FC6900269EEF0A3EF4A
:10619D00F0900262E0FCA3E0FDA3E0FB126304902B
:1061AD000269EEF0A3EFF0900265E0FEA3E0FF9030
:1061BD00025BE02FFF90025AE03EFE900267E0FC8A
:1061CD00A3E0FD90025DE02DFD90025CE03CFC90B3
:1061DD000269E0FAA3E0FB12718B900268E004F013
:1061ED006003026153900267E004F0026153900274
:1061FD0066E004F06003026134900265E004F00291
:02620D006134FA
:01620F00226C
:106210009002ABECF0A3EDF0A3EAF0A3EBF0900258
:06622000A9EEF0A3EFF06F
:10622600C39401EE94004013E024FFFE9002A9E01F
:1062360034FF9002B3F0A3CEF0800F9002A9E0FFE6
:10624600A3E09002B3CFF0A3EFF09002ABE0FEA381
:10625600E0FFC39401EE9400400CEF24FFFFEE3400
:10626600FF9002B5800B9002ABE0FFA3E09002B571
:10627600CFF0A3EFF09002B5E0FFA3E09002AFCF1E
:10628600F0A3EFF09002ACE02402FF9002ABE03402
:1062960000FEC39002B0E09F9002AFE09E505E9079
:1062A60002B3E0FFA3E09002B1CFF0A3EFF09002BB
:1062B600AAE02402FD9002A9E03400FC9002B1E0BD
:1062C600FEA3E0FFC39DEE9C50239002AFE0FCA32B
:1062D600E0FD9002ADE0FAA3E0FB12718B9002B2F2
:1062E600E004F070C99002B1E004F080C19002B001
:0D62F600E004F0708F9002AFE004F08087AC
:016303002277
:0E450F00900100EEF0A3EFF0A3ECF0A3EDF0AE
:10451D00E490010CF0A3F0A3F0A3F0900100E0FEF5
:10452D00A3E0FFC3EB9FFFEA9E900110F0A3EFF015
:10453D00900102E0FAA3E0FBC3900107E09BFE901F
:10454D000106E09A900112F0A3CEF0900100E0FF79
:10455D00A3E090011ACFF0A3EFF0A3EAF0A3EBF0E4
:10456D00900110E0FEA3E0FFD39400EE64809480F0
:10457D00400A900116E4F0A304F08021EF4E70087C
:10458D00900116F0A3F0801574FF900116F0A3F0C2
:10459D00C3E49FFFE49E900110F0A3EFF090011291
:1045AD00E0FEA3E0FFD39400EE64809480400A9077
:1045BD000118E4F0A304F08021EF4E70089001186B
:1045CD00F0A3F0801574FF900118F0A3F0C3E49FE1
:1045DD00FFE49E900112F0A3EFF0900112E0FEA314
:1045ED00E0FF900110E0FCA3E0FDD39FEE6480F8A6
:1045FD00EC6480989001144007ECF0A3EDF0800579
:10460D00EEF0A3EFF0E490010AF0A3F0900115E0B5
:10461D002401FF900114E03400FED390010BE09FC4
:10462D0090010AE09E400302470190011AE0FEA3AB
:10463D00E0FFA3E0FCA3E0FD900108E0FAA3E0FB9E
:10464D0012718B900110E0FEA3E0FF90010DE02FA1
:10465D00F090010CE03EF0900112E0FEA3E0FF901F
:10466D00010FE02FF090010EE03EF0900114E0FEFE
:10467D00A3E0FF90010CE0FCA3E0FDD39FEE64806E
:10468D00F8EC6480984020ED9FFFEC9E90010CF0BB
:10469D00A3EFF0900116E0FEA3E0FF90011BE02FC9
:1046AD00F090011AE03EF0900114E0FEA3E0FF90BF
:1046BD00010EE0FCA3E0FDD39FEE6480F8EC648076
:1046CD00984020ED9FFFEC9E90010EF0A3EFF0902F
:1046DD000118E0FEA3E0FF90011DE02FF090011CFA
:1046ED00E03EF090010BE004F0700690010AE0044A
:0446FD00F002461968
:014701002295
:103767009000A4EEF0A3EFF0A3ECF0A3EDF0A3EA32
:04377700F0A3EBF0E0
:10377B00E49000B1F0A3F0A3F0A3F09000ACE0FF55
:10378B007E00C39000A5E09F9000A4E09E50030232
:10379B0039D29000A9E09F9000A8E09E5003023917
:1037AB00D29000A6E0FCA3E0FD9FEC9E50030239F3
:1037BB00D29000ABE09F9000AAE09E50030239D25A
:1037CB009000ACE070139000A4E0FEA3E0FF90002B
:1037DB00ADE0FAA3E0FB02718B9000A4E0FAA3E04A
:1037EB00FBC39000A9E09BFE9000A8E09A9000B567
:1037FB00F0A3CEF09000A6E0FEA3E0FFC39000ABD9
:10380B00E09FFF9000AAE09E9000B7F0A3EFF0902E
:10381B0000BFEAF0A3EBF09000A6A3E0FF9000C17D
:10382B00EEF0A3EFF09000B5E0FEA3E0FFD3940021
:10383B00EE64809480400A9000BBE4F0A304F08017
:10384B0021EF4E70089000BBF0A3F0801574FF9031
:10385B0000BBF0A3F0C3E49FFFE49E9000B5F0A380
:10386B00EFF09000B7E0FEA3E0FFD39400EE64808E
:10387B009480400A9000BDE4F0A304F08021EF4E49
:10388B0070089000BDF0A3F0801574FF9000BDF0A0
:10389B00A3F0C3E49FFFE49E9000B7F0A3EFF0907A
:1038AB0000B7E0FEA3E0FF9000B5E0FCA3E0FDD382
:1038BB009FEE6480F8EC6480989000B94007ECF0C0
:1038CB00A3EDF08005EEF0A3EFF0E49000AFF0A3D2
:1038DB00F09000BAE02401FF9000B9E03400FED371
:1038EB009000B0E09F9000AFE09E40030239D29071
:1038FB0000C1E0FCA3E0FD9000ACE0FB7A00A3E08C
:10390B00FFA3E09001AACFF0A3EFF09000BFE0FE81
:10391B00A3E0FF122A9A9000B5E0FEA3E0FF90000F
:10392B00B2E02FF09000B1E03EF09000B7E0FEA3C4
:10393B00E0FF9000B4E02FF09000B3E03EF0900079
:10394B00B9E0FEA3E0FF9000B1E0FCA3E0FDD39F44
:10395B00EE6480F8EC6480984020ED9FFFEC9E9025
:10396B0000B1F0A3EFF09000BBE0FEA3E0FF9000EE
:10397B00C0E02FF09000BFE03EF09000B9E0FEA356
:10398B00E0FF9000B3E0FCA3E0FDD39FEE6480F872
:10399B00EC6480984020ED9FFFEC9E9000B3F0A369
:1039AB00EFF09000BDE0FEA3E0FF9000C2E02FF02F
:1039BB009000C1E03EF09000B0E004F07006900083
:0739CB00AFE004F00238DC5C
:0139D20022D2
:0E26D0009000C3EEF0A3EFF0A3ECF0A3EDF04A
:1026DE00E49000D0F0A3F0A3F0A3F09000C3E0FECE
:1026EE00A3E0FFC3EB9FFFEA9E9000D4F0A3EFF0B0
:1026FE009000C5E0FAA3E0FBC39000CAE09BFE90F9
:10270E0000C9E09A9000D6F0A3CEF09000C3E0FF8F
:10271E00A3E09000DECFF0A3EFF0A3EAF0A3EBF07E
:10272E009000D4E0FEA3E0FFD39400EE648094808A
:10273E00400A9000DAE4F0A304F08021EF4E700816
:10274E009000DAF0A3F0801574FF9000DAF0A3F099
:10275E00C3E49FFFE49E9000D4F0A3EFF09000D668
:10276E00E0FEA3E0FFD39400EE64809480400A90D4
:10277E0000DCE4F0A304F08021EF4E70089000DC42
:10278E00F0A3F0801574FF9000DCF0A3F0C3E49F7B
:10279E00FFE49E9000D6F0A3EFF09000D6E0FEA3EB
:1027AE00E0FF9000D4E0FCA3E0FDD39FEE6480F840
:1027BE00EC6480989000D84007ECF0A3EDF0800513
:1027CE00EEF0A3EFF0E49000CEF0A3F09000D9E08D
:1027DE002401FF9000D8E03400FED39000CFE09F9C
:1027EE009000CEE09E4003022A999000CBE0701933
:1027FE009000DEE0FEA3E0FFA3E0FCA3E0FD90006E
:10280E00CCE0FAA3E0FB12718B9000CBE064016088
:10281E00030228A49000DEE0FEA3E0FFA3E0FCA3E9
:10282E00E0FD9000CCE0FAA3E0FB12718B9000DF8C
:10283E00E02401FF9000DEE03400FE9000E0E0FCBA
:10284E00A3E0FD9000CCE0FAA3E0FB12718B9000A8
:10285E00DEE0FEA3E0FF9000E1E02401FD9000E049
:10286E00E03400FC9000CCE0FAA3E0FB12718B90F8
:10287E0000DFE02401FF9000DEE03400FE9000E176
:10288E00E02401FD9000E0E03400FC9000CCE0FA82
:10289E00A3E0FB12718B9000CBE06402600302296F
:1028AE00E89000DEE0FEA3E0FFA3E0FCA3E0FD90D5
:1028BE0000CCE0FAA3E0FB12718B9000DFE0240164
:1028CE00FF9000DEE03400FE9000E0E0FCA3E0FDAF
:1028DE009000CCE0FAA3E0FB12718B9000DEE0FEDC
:1028EE00A3E0FF9000E1E02401FD9000E0E0340061
:1028FE00FC9000CCE0FAA3E0FB12718B9000DFE0BD
:10290E002401FF9000DEE03400FE9000E1E024019F
:10291E00FD9000E0E03400FC9000CCE0FAA3E0FB78
:10292E0012718B9000DFE024FFFF9000DEE034FF99
:10293E00FE9000E1E02401FD9000E0E03400FC9008
:10294E0000CCE0FAA3E0FB12718B9000DFE02401D3
:10295E00FF9000DEE03400FE9000E1E024FFFD90E9
:10296E0000E0E034FFFC9000CCE0FAA3E0FB127133
:10297E008B9000DFE024FFFF9000DEE034FFFE903E
:10298E0000E1E024FFFD9000E0E034FFFC9000CC7D
:10299E00E0FAA3E0FB12718B9000DFE024FFFF90C2
:1029AE0000DEE034FFFE9000E0E0FCA3E0FD9000CE
:1029BE00CCE0FAA3E0FB12718B9000DEE0FEA3E008
:1029CE00FF9000E1E024FFFD9000E0E034FFFC907A
:1029DE0000CCE0FAA3E0FB12718B9000D4E0FEA3D2
:1029EE00E0FF9000D1E02FF09000D0E03EF090009C
:1029FE00D6E0FEA3E0FF9000D3E02FF09000D2E0EF
:102A0E003EF09000D8E0FEA3E0FF9000D0E0FCA3E3
:102A1E00E0FDD39FEE6480F8EC6480984020ED9F3B
:102A2E00FFEC9E9000D0F0A3EFF09000DAE0FEA352
:102A3E00E0FF9000DFE02FF09000DEE03EF090002F
:102A4E00D8E0FEA3E0FF9000D2E0FCA3E0FDD39F10
:102A5E00EE6480F8EC6480984020ED9FFFEC9E9031
:102A6E0000D2F0A3EFF09000DCE0FEA3E0FF9000B8
:102A7E00E1E02FF09000E0E03EF09000CFE004F0B7
:0B2A8E0070069000CEE004F00227DA92
:012A9900221A
:106BA400FAE0FFA3E0900372CFF0A3EFF090026B42
:056BB400E0FEA3E0FF7C
:106BB90090036CEEF0A3EFF0A3ECF0A3EDF0A3EAE1
:106BC900F0A3EBF04A6069900304E0FCA3E0FD90B8
:106BD900036CE0FAA3E0FBD39DEA9C5053900306B3
:106BE900E0FEA3E0FF90036EE0FCA3E0FD9FEC9EB6
:106BF900503EAF03AE02C006C007900370E0FEA38B
:106C0900E0FF90036EE0F8A3E02FFFE83ECF24FFFA
:106C1900CF34FF9002F2F0A3EFF0900372E0FFA3EC
:106C2900E09002F4CFF0A3EFF0D007D00612675C32
:016C39002238
:106ED800900374EEF0A3EFF0A3ECF0A3EDF0EB4A0F
:106EE8006068900304E0FEA3E0FFD3900375E09F81
:106EF800900374E09E5053900306E0FEA3E0FF90D9
:106F08000376E0FCA3E0FD9FEC9E503EAE02AF038B
:106F1800900374E0FAA3E02FFFEA3ECF24FFFBEFD3
:106F280034FFFAA3E0FFA3E09002F2CFF0A3EFF062
:106F380090037AE0FFA3E09002F4CFF0A3EFF09083
:0B6F48000374E0FEA3E0FF12675C2270
:1057FC009002B7EEF0A3EFF0A3ECF0A3EDF0A3EA68
:04580C00F0A3EBF02A
:10581000A3E07002A3E070030259429002BBE07063
:1058200002A3E070030259429002C2E020E00302AA
:1058300058BFE4A3F0A3F09002BBE0FEA3E0FF900A
:1058400002C3E0FCA3E0FDC39FEC9E40030259426B
:105850009002B8E02DFF9002B7E03CFEC006C00702
:105860009002B9E0FCA3E0FD9002BEE024FFFB90B3
:1058700002BDE034FFFAC002C0039002C4E025E09C
:10588000FF9002C3E033FE9002BFE0FBA3E0FAA367
:10589000E0F98F828E8312328AFF900372E5F0F076
:1058A000A3EFF0D003D002D007D006126BB990025C
:1058B000C4E004F070819002C3E004F0025837E4C1
:1058C0009002C3F0A3F09002BDE0FEA3E0FF9002BF
:1058D000C3E0FCA3E0FDC39FEC9E50669002BAE0DB
:1058E0002DFD9002B9E03CFC9002BCE024FFFB904F
:1058F00002BBE034FFFAC002C0039002C4E025E01E
:10590000FF9002C3E033FE9002BFE0FBA3E0FAA3E6
:10591000E0F98F828E8312328AFF90037AE5F0F0ED
:10592000A3EFF09002B7E0FEA3E0FFD003D0021295
:105930006ED89002C4E004F0708C9002C3E004F0D2
:02594000808461
:015942002242
:064ADE0090011E12344697
:104AE400E490013AF0A3F090011EE0FCA3E0FDA3E2
:104AF400E0FEA3E0FF781012343390012BEFF0FBBB
:104B040090011EE0FCA3E0FDA3E0FEA3E0FF780813
:104B140012343390012CEFF0FA90011EA3A3A3E00A
:104B2400FFA90790012DE9F0900122E0FCA3E0FD2C
:104B3400A3E0FEA3E0FF7810123433EBFDC3EF9D36
:104B4400FFEE940090012EF0A3EFF0900122E0FC20
:104B5400A3E0FDA3E0FEA3E0FF7808123433EAFDEE
:104B6400C3EF9DFEE49400900130F0A3CEF09001D9
:104B740022A3A3A3E0FFE9FDC3EF9DFEE49400900C
:104B84000132F0A3CEF0E490013AF0A3F0900129B1
:104B9400E0FEA3E0FFC390013BE09F90013AE09E5A
:104BA4004003024CC6E0FAA3E0FB90012EE0FEA312
:104BB400E0FFAD03AC021231F7900129E0FCA3E061
:104BC400FD123209A3E07C002FFFEC3E900134F08B
:104BD400A3EFF0900130E0FEA3E0FFAD03AC0212BE
:104BE40031F7900129E0FCA3E0FD12320990012C79
:104BF400E07C002FFFEC3E900136F0A3EFF0900133
:104C040032E0FEA3E0FFAD03AC021231F7900129BC
:104C1400E0FCA3E0FD12320990012DE07C002FFF9F
:104C2400EC3E900138F0A3EFF0900134E0FEA3E0F5
:104C34007803CEC313CE13D8F9F0EE900134F0907C
:104C44000136E0FEA3E07802CEC313CE13D8F9F008
:104C5400EE900136F0900138E0FEA3E07803CEC375
:104C640013CE13D8F9F0EE900138F0900136E0FE3F
:104C7400A3E07805C333CE33CED8F9FDAC0690015A
:104C840035E033333354F84CFEEDFF900138E04EF9
:104C9400FCA3E04FFDEB25E0FFEA33FE900126E0A4
:104CA400FBA3E0FAA3E0F98F828E83EC8DF012323D
:104CB400C290013BE004F0700690013AE004F00277
:024CC4004B9112
:014CC60022CB
:105F15009001BCEEF0A3EFF0A3ECF0A3EDF0A3EA43
:045F2500F0A3EBF00A
:105F29009001C8E0FCA3E0FDA3E0FEA3E0FF90011F
:105F3900221234469001D0E0F9A3E0FAA3E09001DF
:105F490026C9F0A3EAF0A3E9F09001C0E0FFA3E0BD
:105F5900900129CFF0A3EFF09001C4E0FCA3E0FD8C
:105F6900A3E0FEA3E0FF124ADEE49001CCF0A3F027
:105F79009001C0E0FEA3E0FFC39001CDE09F900136
:105F8900CCE09E4003026020E49001CEF0A3F090A3
:105F990001C2E0FEA3E0FFC39001CFE09F9001CED4
:105FA900E09E505F9001CCE0FAA3E0FB9001BDE0D8
:105FB9002BFF9001BCE03AFEC006C0079001CEE07D
:105FC900FEA3E0FF9001BFE02FFD9001BEE03EFC83
:105FD900EB25E0FFEA33FE9001D0E0FBA3E0FAA352
:105FE900E0F98F828E8312328AFBAAF0D007D0069D
:105FF90012718B9001CFE004F070949001CEE0040F
:10600900F0808C9001CDE004F06003025F7990018B
:07601900CCE004F0025F7906
:01602000225D
:10682C00900337EEF0A3EFF0A3ECF0A3EDF0A3EAA6
:10683C00F0A3EBF0C00790033FE0FFA3E090037AD6
:10684C00CFF0A3EFF0D007126ED890033DE0FEA37B
:10685C00E0FF90033AE02FFF900339E03ECF24FF96
:10686C00FDEF34FFFC90033BE0FAA3E0FB90033F09
:10687C00E0FFA3E090037ACFF0A3EFF0900337E0B2
:10688C00FEA3E0FF126ED8900339E0FCA3E0FD906C
:10689C00033DE0FAA3E0FBA3E0FFA3E0900372CF7B
:1068AC00F0A3EFF0900337126BB490033BE0FEA320
:1068BC00E0FF900338E02FFF900337E03ECF24FF3A
:1068CC00CF34FFFEC007900339E0FCA3E0FD90033A
:1068DC003DE0FAA3E0FBA3E0FFA3E0900372CFF04E
:0868EC00A3EFF0D007026BB925
:101C190090026BEEF0A3EFF0A3ECF0A3EDF0A3EAD2
:041C2900F0A3EBF049
:101C2D00E4900279F0A3F0900271E0FEA3E030E0C1
:101C3D000A2401FFE43E900279800B900271E0FFCF
:101C4D00A3E0900279CFF0A3EFF0900274E0900240
:101C5D00737003021E78E0F975F002A4FFC39002C1
:101C6D0070E09FFB90026FE095F0FAE9FF90026C37
:101C7D00E02FFF90026BE03400FEC00790026DE094
:101C8D00FCA3E0FD900279E0C313FFA3E0139003E2
:101C9D0047CFF0A3EFF0900275E0FFA3E09003496A
:101CAD00CFF0A3EFF0D007126CDA900273E0F97564
:101CBD00F002A4FFC3900270E09FFB90026FE095CD
:101CCD00F0FAE9FF90026CE02FFF90026BE0340018
:101CDD00FEC006C007900279E0C313FEA3E013FF18
:101CED0090026EE02FFD90026DE03EFC900279E0D7
:101CFD00C313FFA3E013900347CFF0A3EFF09002BF
:101D0D0077E0FFA3E0900349CFF0A3EFF0D007D029
:101D1D0006126CDA900273E0F9FB7A0090026EE025
:101D2D002BFD90026DE03AFC900279E0C313FEA307
:101D3D00E013FFE9F582C3EF9582FFEE9400900367
:101D4D0047F0A3EFF0900275126CC6900279E0C3D4
:101D5D0013FEA3E013FF90026EE02FFD90026DE0E5
:101D6D003EFC900273E0F9FB7A00900279E0C31318
:101D7D00FEA3E013FFE9F582C3EF9582FFEE940019
:101D8D00900347F0A3EFF0900277126CC690026FAC
:101D9D00E0FEA3E0FF90026CE02FFF90026BE03EAF
:101DAD00FE900273E0F9FD7C00C3EF9DFFEE9CFEFB
:101DBD00C006C00790026EE02DFD90026DE03CFC68
:101DCD00E9FB7A00900279E0C313FEA3E013FFE96B
:101DDD00F582C3EF9582FFEE9400900347F0A3EFD9
:101DED00F0900275E0FFA3E0900349CFF0A3EFF070
:101DFD00D007D006126CDA90026FE0FEA3E0FF90E0
:101E0D00026CE02FFF90026BE03EFE900273E0F952
:101E1D00FB7A00C3EF9BFFEE9AFEC006C00790024F
:101E2D0079E0C313FEA3E013FF90026EE02FFD9047
:101E3D00026DE03EFC900279E0C313FEA3E013FFB8
:101E4D00E9F582C3EF9582FFEE9400900347F0A36E
:101E5D00EFF0900277E0FFA3E0900349CFF0A3EFFE
:101E6D00F0D007D006126CDA02202BE0F975F002E3
:101E7D00A4FFC3900270E09FFB90026FE095F0FA13
:101E8D00C003E9FF90026CE02FFF90026BE034007D
:101E9D00FE90026DE0FCA3E0FD900275E0FBA3E077
:101EAD0090037ACBF0A3EBF0D003126ED8900273AF
:101EBD00E0F975F002A4FFC3900270E09FFB900261
:101ECD006FE095F0FAC002C003E9FF90026CE02FBD
:101EDD00FF90026BE03400FE900279E0FCA3E0FD80
:101EED0090026DE0FAA3E02DFDEA3CCD24FFCD3448
:101EFD00FFFC900277E0FBA3E090037ACBF0A3EB1D
:101F0D00F0D003D002126ED8900273E0FB7A0090ED
:101F1D00026EE02BFD90026DE03AFC900279E0C379
:101F2D0013FEA3E013C39BFBEE9A900275126BA4F4
:101F3D00900279E0FAA3E0FBEAC313FEEB13FF90E6
:101F4D00026EE02FFD90026DE03EFCEAC313FEEB46
:101F5D0013FF900273E0FBC3EF9BFBEE9400900226
:101F6D0077126BA490026FE0FEA3E0FF90026CE08D
:101F7D002FFF90026BE03ECF24FFCF34FFFEC00653
:101F8D00C007900273E0FB7A0090026EE02BFD908B
:101F9D00026DE03AFC900279E0C313FEA3E013C397
:101FAD009BFBEE9AFA900275E0FFA3E0900372CFCF
:101FBD00F0A3EFF0D007D006126BB990026FE0FEE0
:101FCD00A3E0FF90026CE02FFF90026BE03ECF2468
:101FDD00FFCF34FFFEC006C007900279E0FAA3E000
:101FED00FBEAC313FEEB13FF90026EE02FFD900290
:101FFD006DE03EFCEAC313FEEB13FF900273E0FBB2
:10200D00C3EF9BFBEE9400FA900277E0FFA3E09004
:10201D000372CFF0A3EFF0D007D006126BB9900288
:10202D006DE0FCA3E0FD900273E0F9FF7E009002ED
:10203D006BE0FAA3E02FFBEE3AFAA3E0F8A3E02F52
:10204D00FFEE38900178F0A3EFF0E9FF90026BE01E
:10205D00F8A3E02FFFEE3890017AF0A3EFF0E9FF3F
:10206D0090026DE0F8A3E02FFFEE3890017CF0A315
:10207D00EFF0E9FFA3EEF0A3EFF0900275124E9F83
:10208D00900279E0FEA3E0FF90026EE02FFF900238
:10209D006DE03EFE900273E0F9FB7A00C3EF9BFD0D
:1020AD00EE9AFC90026BE0FEA3E02BFBEA3EFA9069
:1020BD000279E0FEA3E0FF90026DE0F8A3E02FFFB0
:1020CD00E83ECF24FFCF34FF900178F0A3EFF0E985
:1020DD00FF7E0090026BE0F8A3E02FFFEE38900139
:1020ED007AF0A3EFF0900279E0FEA3E0FF90026D8D
:1020FD00E0F8A3E02FFFE83EFEE9F582C3EF9582FD
:10210D00FFEE9400CF24FFCF34FF90017CF0A3EFBE
:10211D00F0E9FFA3E4F0A3EFF0900277124E9F9049
:10212D00026FE0FEA3E0FF90026CE02FFB90026BCC
:10213D00E03EFA900273E0F9FFC3EB9FFFEA9400D3
:10214D00FEC006C00790026DE0FCA3E0FDE9FF7E36
:10215D000090026DE0F8A3E02FFFEE38900178F0CB
:10216D00A3EFF090026FE0FEA3E0FF90026BE0F8AA
:10217D00A3E02FFFE83EFEE9F582C3EF9582FFEE67
:10218D009400CF24FFCF34FF90017AF0A3EFF0E954
:10219D00FF7E0090026DE0F8A3E02FFFEE38900176
:1021AD007CF0A3EFF0E9FFA3EEF0A3EFF090027542
:1021BD00E0FFA3E0900180CFF0A3EFF0900274E078
:1021CD00900182F0D007D006124EBB90026FE0FE58
:1021DD00A3E0FF90026CE02FFF90026BE03EFE90BB
:1021ED000273E0F9FDC3EF9DFFEE9400FEC006C043
:1021FD0007900279E0FEA3E0FF90026EE02FFF90C2
:10220D00026DE03EFEC3EF9DFDEE9400FC90026F6B
:10221D00E0FEA3E0FF90026BE0FAA3E02FFBEA3EA5
:10222D00FA900279E0FEA3E0FF90026DE0F8A3E0E2
:10223D002FFFE83ECF24FFCF34FF900178F0A3EFBE
:10224D00F090026FE0FEA3E0FF90026BE0F8A3E0D8
:10225D002FFFE83EFEE9F582C3EF9582FFEE940075
:10226D00CF24FFCF34FF90017AF0A3EFF0900279E5
:10227D00E0FEA3E0FF90026DE0F8A3E02FFFE83E43
:10228D00FEE9F582C3EF9582FFEE9400CF24FFCFD8
:10229D0034FF90017CF0A3EFF0E9FFA3E4F0A3EF8E
:1022AD00F0900277E0FFA3E0900180CFF0A3EFF074
:0F22BD00900274E0900182F0D007D006024EBB71
:106CC600E0FFA3E0900349CFF0A3EFF090026BE062
:046CD600FEA3E0FF3A
:106CDA00900341EEF0A3EFF0A3ECF0A3EDF0EB4A42
:106CEA006063900347E07002A3E06059900343E0B9
:106CFA00FCA3E0FDAE02AF03900341E0FAA3E02F4C
:106D0A00FFEA3ECF24FFFBEF34FFFA900347E0FE91
:106D1A00A3E0FF900343E0F8A3E02FFFE83ECF246F
:106D2A00FFCF34FF9002F2F0A3EFF0900349E0FFA7
:106D3A00A3E09002F4CFF0A3EFF0900341E0FEA3AA
:066D4A00E0FF12675C226D
:102A9A009001A4EEF0A3EFF0A3ECF0A3EDF0A3EA0B
:042AAA00F0A3EBF0BA
:102AAE009001A8E0FEA3E0FF7C027DC3123483E414
:102ABE007BE87A03F9F812337AEF2401FFE43EFE45
:102ACE00E43DFDE43CFC9001B01234469001A8E0D8
:102ADE00FEA3E0FF9001A8E0FCA3E0FD123483C04A
:102AEE0004C005C006C0079001A8E0FEA3E0FFE405
:102AFE00FCFD7B02FAF9F812337AD003D002D00132
:102B0E00D000EB2FFFEA3EFEE93DFDE83CFC9001D4
:102B1E00B41234469001A8E0FAA3E0FBFFAE02E443
:102B2E00FCFD9001B8123446C39001A5E09BFF90C6
:102B3E0001A4E09AFEC0079001A6E0FCA3E0FD9080
:102B4E0001A9E025E0FB9001A8E033FA9001AAE08C
:102B5E00FFA3E090037ACFF0A3EFF0D007126ED868
:102B6E009001AC123452000000019001B0E0FCA3C1
:102B7E00E0FDA3E0FEA3E0FF9001ACE0F8A3E0F9D6
:102B8E00A3E0FAA3E0FBD31234224003022E3990C5
:102B9E0001B8E0FCA3E0FDA3E0FEA3E0FFA804A9BA
:102BAE0005AA06FB1232EFC004C005C006C007908E
:102BBE0001ACE0FCA3E0FDA3E0FEA3E0FFA804A9A6
:102BCE0005AA06FB1232EFD003D002D001D000EFDF
:102BDE002BFFEE3AFEED39FDEC38FC9001B4E0F837
:102BEE00A3E0F9A3E0FAA3E0FBC3123422400302F0
:102BFE002D429001B0E0FCA3E0FDA3E0FEA3E0FFB8
:102C0E009001B8E0F8A3E0F9A3E0FAA3E0FB1234D8
:102C1E00225003022D209001ACA3A3E0FEA3E0FFFF
:102C2E009001A5E09FFF9001A4E09ECF2401CF3438
:102C3E0000FEC006C0079001B8A3A3E0FEA3E0FF0C
:102C4E009001A7E02FFD9001A6E03EFCC004C00558
:102C5E009001ACE0FCA3E0FDA3E0FEA3E024FFFFA7
:102C6E00EE34FFFEED34FFFDEC34FFFCE47B02FAA4
:102C7E00F9F81232EFAB07AA069001AAE0FFA3E023
:102C8E0090037ACFF0A3EFF0D005D004D007D00692
:102C9E00126ED89001ACA3A3E0FEA3E0FFC3900197
:102CAE00A5E09FFF9001A4E09ECF2401CF3400FE4B
:102CBE00C006C0079001B8A3A3E0FEA3E0FFC39037
:102CCE0001A7E09FFD9001A6E09EFCC004C0059008
:102CDE0001ACE0FCA3E0FDA3E0FEA3E024FFFFEEC9
:102CEE0034FFFEED34FFFDEC34FFFCE47B02FAF919
:102CFE00F81232EFAB07AA069001AAE0FFA3E0900C
:102D0E00037ACFF0A3EFF0D005D004D007D006128F
:102D1E006ED89001B8E0FCA3E0FDA3E0FEA3E02492
:102D2E00FFFFEE34FFFEED34FFFDEC34FFFC9001AF
:102D3E00B81234469001B8A3A3E0FEA3E0FFC390FF
:102D4E0001A5E09FFF9001A4E09EFEC006C0079083
:102D5E0001ACA3A3E0FEA3E0FF9001A7E02FFD903E
:102D6E0001A6E03EFCC004C005E47F02FEFDFC901F
:102D7E0001B8E0F8A3E0F9A3E0FAA3E0FB1232EF0A
:102D8E00AB07AA069001AAE0FFA3E090037ACFF06A
:102D9E00A3EFF0D005D004D007D006126ED8900164
:102DAE00B8A3A3E0FEA3E0FFC39001A5E09FFF90B0
:102DBE0001A4E09EFEC006C0079001ACA3A3E0FEF6
:102DCE00A3E0FFC39001A7E09FFD9001A6E09EFC4B
:102DDE00C004C005E47F02FEFDFC9001B8E0F8A33C
:102DEE00E0F9A3E0FAA3E0FB1232EFAB07AA0690DC
:102DFE0001AAE0FFA3E090037ACFF0A3EFF0D00595
:102E0E00D004D007D006126ED89001ACE0FCA3E03F
:102E1E00FDA3E0FEA3E02401FFE43EFEE43DFDE45D
:0B2E2E003CFC9001AC123446022B78F3
:012E39002276
:1068F400900283F0A3EFF0900230E0FEA3E0FF905B
:10690400022EE0F8A3E02FFFE83E900285F0A3EF0B
:10691400F0900234E0FFA3E0900287CFF0A3EFF001
:08692400900224E0FEA3E0FF55
:0E692C0090027BEEF0A3EFF0A3ECF0A3EDF0F1
:10693A00900283E0FCA3E0FDD39BEC9A506C90029A
:10694A007BE0FEA3E0FFC3ED9FEC9E405D900281D9
:10695A00E0FEA3E0FF900285E0FCA3E0FDD39FECFC
:10696A009E504790027DE0FEA3E0FFC3ED9FEC9EA0
:10697A00403890030BE0FFA3E0900289CFF0A3EF29
:10698A00F0900287E0FFA3E090030BCFF0A3EFF0B3
:10699A00900283E0FEA3E0FF127227900289E0FFD3
:0A69AA00A3E090030BCFF0A3EFF081
:0169B40022C0
:1034F600E0FFA3E0900232CFF0A3EFF0900180E06E
:10350600FFA3E0900234CFF0A3EFF0900172E0FE4B
:03351600A3E0FF30
:10351900900224EEF0A3EFF0A3ECF0A3EDF0A3EA00
:10352900F0A3EBF0C006C007A3E0FFA3E09002817F
:10353900CFF0A3EFF0900230E0FEA3E0FF90022C61
:10354900E0F8A3E02FFFE83E900283F0A3EFF090AC
:103559000232E0FEA3E0FF90022EE0F8A3E0C39F51
:10356900FFE89E900285F0A3EFF0900234E0FFA3FC
:10357900E0900287CFF0A3EFF0D007D00612692CB4
:10358900900226E0FCA3E0FDA3E0FAA3E0FBA3E0A0
:10359900FFA3E0900281CFF0A3EFF0900232E0FEAA
:1035A900A3E0FF90022CE0F8A3E02FFFE83E900291
:1035B90083F0A3EFF0900230E0FEA3E0FF90022E2B
:1035C900E0F8A3E0C39FFFE89E12690E900226E08F
:1035D900FCA3E0FDA3E0FAA3E0FBA3E0FFA3E090D6
:1035E9000281CFF0A3EFF0900232E0FEA3E0FF905A
:1035F900022CE0F8A3E02FFFE83E1268F4900226BF
:10360900E0FCA3E0FDA3E0FAA3E0FBA3E0FFA3E055
:10361900900281CFF0A3EFF0900230E0FEA3E0FF2B
:1036290090022CE0F8A3E02FFFE83E900283F0A37C
:10363900EFF09002321268FE900226E0FCA3E0FD52
:10364900A3E0FAA3E0FBA3E0FFA3E0900281CFF09F
:10365900A3EFF0900230E0FEA3E0FF90022CE0F827
:10366900A3E0C39FFFE89E900283F0A3EFF09002CE
:10367900321268FE900226E0FCA3E0FDA3E0FAA363
:10368900E0FBA3E0FFA3E0900281CFF0A3EFF0906D
:103699000232E0FEA3E0FF90022CE0F8A3E0C39F12
:1036A900FFE89E1268F4900226E0FCA3E0FDA3E087
:1036B900FAA3E0FBA3E0FFA3E0900281CFF0A3EF20
:1036C900F0900232E0FEA3E0FF90022CE0F8A3E0C4
:1036D900C39FFFE89E900283F0A3EFF0900230E0D1
:1036E900FEA3E0FF90022EE0F8A3E0C39FFFE89E4F
:1036F90012690E900226E0FCA3E0FDA3E0FAA3E024
:10370900FBA3E0FFA3E0900281CFF0A3EFF09002CA
:1037190030E0FEA3E0FF90022CE0F8A3E0C39FFF96
:10372900E89E900283F0A3EFF0900232E0FEA3E05E
:10373900FF90022EE0F8A3E0C39FFFE89E90028568
:10374900F0A3EFF0900234E0FFA3E0900287CFF0FE
:0E375900A3EFF0900224E0FEA3E0FF02692C33
:104E9F00E0FFA3E0900180CFF0A3EFF0900274E069
:0C4EAF00900182F090026BE0FEA3E0FF97
:104EBB00900172EEF0A3EFF0A3ECF0A3EDF0A3EAF8
:044ECB00F0A3EBF075
:104ECF00E4900183F0A3F090017EE0FEA3E0FF9059
:104EDF000185EEF0A3EFF025E0FFEE33FEC3740380
:104EEF009F90018AF0E49E900189F0900185E0FE89
:104EFF00A3E0FF900183E0FCA3E0FDD39FEE64806D
:104F0F00F8EC6480984003025075900182E07003C2
:104F1F00024FA7900187ECF0A3EDF0900185E0FE22
:104F2F00A3E0FFD3900188E09FEE6480F8900187A3
:104F3F00E06480984003024FF5900174E0FCA3E019
:104F4F00FDA3E0FAA3E0FBA3E0FFA3E090022ACFCA
:104F5F00F0A3EFF090017AE0FFA3E090022CCFF0E6
:104F6F00A3EFF090017CE0FFA3E090022ECFF0A31F
:104F7F00EFF0900183E0FFA3E0900230CFF0A3EFBA
:104F8F00F09001871234F6900188E004F0708C9055
:104F9F000187E004F0024F2A900174E0FCA3E0FDCA
:104FAF00A3E0FAA3E0FBA3E0FFA3E090022ACFF077
:104FBF00A3EFF090017AE0FFA3E090022CCFF0A3D3
:104FCF00EFF090017CE0FFA3E090022ECFF0A3EF73
:104FDF00F0900183E0FFA3E0900230CFF0A3EFF059
:104FEF009001851234F6900184E004F07006900170
:104FFF0083E004F0C3900189E06480948050259091
:10500F000183E0FEA3E07802C333CE33CED8F92478
:10501F0006FFE43EFE90018AE02FF0900189E03E0A
:10502F00F0024EFA900185E0FEA3E0FFC3900184E9
:10503F00E09FFF900183E09EFEEF7802C333CE33F3
:10504F00CED8F9240AFFE43EFE90018AE02FF090BB
:10505F000189E03EF0900186E024FFF0900185E0A9
:06506F0034FFF0024EFACE
:015075002218
:1022CC0090005EEEF0A3EFF0A3ECF0A3EDF0A3EA28
:0422DC00F0A3EBF090
:1022E000FFAE02E4FCFD90007A123446900064E0F8
:1022F000FEA3E0FFE4FCFD90007E123446C3900094
:102300005FE09B90005EE09A50030226CF90006051
:10231000E0FEA3E0FFD3900065E09F900064E09EA4
