:10009800535443313546324B363053322055415252
:1000A800543220546573742050726772616D6D65A7
:0400B800210D0A000C
:10004600E4F593F594F591F592F595F596F5B1F5F8
:10005600B2F5B3F5B4F5C9F5CAF5CBF5CCF5E1F5CE
:10006600E27F021200BCD2AF7BFF7A0079981201C0
:1000760011E509650860FA2000F774212509F8E6FC
:10008600F59BD2000509E509C3942040E4E4F5098F
:0200960080DF09
:100111001200F86010F59BD2002000FD740129F94E
:06012100E43AFA80EB2233
:1000DE00AD07AC06538EEF538EF7438E048CD6AF1E
:0A00EE00058FD753AFFB438E10229D
:1000BC00EF6402701C7FD07EFF1200DE539A7F43E8
:1000CC00AF01439A1053BAFE43BA01C200F509F5C9
:0200DC000822F8
:03004300020003B5
:10000300C0E0C0D075D000C000E59A30E016539A26
:10001300FE74212508F8A69B0508E508C394204033
:1000230003750800E59A30E105539AFDC200D0003C
:05003300D0D0D0E03246
:03000000020127D3
:0C012700787FE4F6D8FD758140020046A8
:1000F800BB010689828A83E0225002E722BBFE0206
:09010800E32289828A83E4932238
:00000001FF
