:1000BE00E4F50DF50CF50EF50FF510F50875094084
:1000CE00F50A750BC0FB7A007908FF1201B853B11F
:1000DE007F53B27FE4F50DF50CF50EF50FF510F527
:1000EE0008750940F50A750BC0FB7A0079087F0187
:1000FE001201B85395FD5396FDE4F50DF50CF50E72
:10010E00F50FF510F508750940F50A750BC0FB7A69
:10011E000079087F021201B85395FB5396FBE4F564
:10012E000DF50CF50EF50FF510F508750940F50AED
:10013E00750BC0FB7A0079087F031201B85395F74F
:10014E005396F7750D08E4F50CF50EF50FF510F551
:10015E0008750940F50A750BC0FB7A0079087F0413
:10016E001201B853937F53947F750D08E4F50C7507
:10017E000E01750F01F510F508750940F50A750B9E
:10018E00C0FB7A0079087F051201B85393BF5394D0
:10019E00BF75D6FF75D7D0758E147D007C017F108C
:0901AE0012034043F58053F5BF34
:0101B7002225
:10026D001200BE7B207A007D107C00E4FF1202C0DC
:10027D007B307A007D107C007F011202C07B407ABA
:10028D00007D107C007F021202C07B607A007D1021
:10029D007C007F031202C07B807A007D107C007F82
:1002AD00041202C07B907A007D107C007F05120243
:0302BD00C080FE00
:02034000A9070B
:1003420043BA807BF27AFF8B828A83E9F07BF08B5F
:1003520082ECF00BBB00010A8B828A83EDF053BA68
:010362007F1B
:010363002277
:0201B8008F11A5
:1001BA0043BA80E51175F010A42400FFE5F034FF7E
:1001CA00AD07FC120030E5F08D828C83F00DBD0086
:1001DA00010C1200308D828C83F00DBD00010C9051
:1001EA00000212005BE5F08D828C83F00DBD0001E8
:1001FA000C90000212005B8D828C83F00DBD000111
:10020A000C90000612000325E025E05404FF90003C
:10021A000512000354084FFF900008120003FE2540
:10022A00E054024FFF90000712000354014F8D82E1
:10023A008C83F0AF117401A807088002C333D8FC7D
:10024A00FF42F59000041200035401FEAD11A80507
:10025A00088002C333D8FCFEEFF455F14EF5F15392
:02026A00BA7F59
:01026C00226F
:0402C0008C088D0910
:1002C40043BA80EF75F010A42400FFE5F034FFADCD
:1002D40007FCE5088D828C83F00DBD00010C8D8236
:1002E4008C83E509F00DBD00010C8D828C83EAF04E
:0E02F4000DBD00010C8D828C83EBF053BA7FA0
:0103020022D8
:0300B30002030342
:10030300C0E0E5F630E60353F6BFE5F630E003530D
:10031300F6FEE5F630E10353F6FDE5F630E203536E
:10032300F6FBE5F630E30353F6F7E5F630E4035363
:0D033300F6EFE5F630E50353F6DFD0E032DB
:0300BB00020093AD
:0D009300C0E0E5F730E00353F7FED0E032A7
:030000000200A05B
:0C00A000787FE4F6D8FD75811102026D36
:10000300BB010CE58229F582E5833AF583E02250B2
:1000130006E92582F8E622BBFE06E92582F8E222FC
:0D002300E58229F582E5833AF583E4932216
:10003000BB010A89828A83E0F5F0A3E0225006879B
:10004000F009E71922BBFE07E3F5F009E31922895D
:0B005000828A83E493F5F07401932290
:10005B00BB0110E58229F582E5833AF583E0F5F0E3
:10006B00A3E0225009E92582F886F008E622BBFEC0
:10007B000AE92582F8E2F5F008E222E5832AF58306
:08008B00E993F5F0A3E99322CB
:00000001FF
